:200000000C94A3000C94EA000C9405010C94EA000C94EA000C94EA000C94A3150C94EA00ED
:200020000C94EA000C94EA000C94EA000C94EA000C94EA000C94EA000C94FA150C94EA004B
:200040000C94EA000C94EA000C94EA000C94EA000C94EA000C94EA000C94EA000C94EA0050
:200060000C94EA000C94EA000401120118010C0107011E111F11201114010B012111221110
:2000800023110D0117012411251126110E011101301127112F111B013301295D2C5D2B5DA3
:2000A0002A5D2D5D09022200010100A0960904000001030101000921010100012240000721
:2000C0000581030800011201100100000008EDDE02000100010200010C03730049006D0058
:2000E0004300500000001A036400730061006E006300680065007A007300650063006F0056
:2001000000000403090405010906A101050719E029E715002501950875018102950175081B
:2001200081030507190029FF150026FF00950675088100050819012905950575019102958E
:200140000175039103C011241FBECFEFD8E0DEBFCDBF04B603FE27C08091BC029091BD02D0
:20016000A091BE02B091BF028730904BA740B04BD1F41092BC021092BD021092BE0210928E
:20018000BF0214BE84B7877F84BF0FB6F894A89580916000886180936000109260000FBE1E
:2001A000E0E0F8E3099511E0A0E0B1E0E4E5F3E302C005900D92A233B107D9F722E0A2E38B
:2001C000B1E001C01D92AC3BB207E1F70E945A160C948E190C940000A82FB92F80E090E01E
:2001E00041E050EA609530E009C02D9182279795879510F084279527305EC8F36F5FA8F30E
:200200000895EADF8D939D930895CF93CFB7CF93DF93C3954B9BE9F74B9B10C04B9B0EC047
:200220004B9B0CC04B9B0AC04B9B08C04B9B06C0C0919302C395C09393028EC06F93C0913B
:200240009202DD27C656DD4F2F9365E54B9B03C02F916F91E1CF0F931F934F9320E040E142
:200260005F9309B10C7003FB27F93F9350E03BE039C01C7040642F77012F5F5F1EC04068D8
:2002800019B11C702F7752501FC0406409B12F770C70D1F15F5F00C023C0406219B12F772C
:2002A0001C7091F15F5F00C025C00C701027515012F45D5F0000115027952C3F19B1C8F6A7
:2002C0001C700127015027952C3FC8F64227499309B10C7010274F73115027952C3FA8F69A
:2002E0004695469519B11C7079F00127015027952C3F98F66B5A60F3315009B1B0F600C0A2
:2003000012E01CBB00271CC03B503195C31BD04012E01CBB0881033C21F10B3411F120913D
:200320008F021981110F1213EDCF4A81441F093679F10D3211F0013E29F74F7009F0042F30
:20034000009398023F915F914F911F910F912F916F91CCB3C1FD5DCFDF91CF91CFBFCF9199
:20036000189520919802222369F310919602112309F049C034300AF448C0309396022093FD
:200380009102109192023BE0311B309392023DC0009196020130BCF50AE54F7049F4309123
:2003A0000D0134FD33C000930D01CCE6D2E032C0433059F0443091F03091770234FD26C012
:2003C00000937702C8E7D2E025C03091B00234FD1DC00093B002C1EBD2E01CC03091830285
:2003E00034FD14C000938302C4E8D2E013C0052710E000C000000BB91AC0052710E0221FD8
:200400001DC010E021C04AE502C032ED432FC4E1D0E032E01AB11C605B9A0BB11AB95CE03E
:2004200020E865E320FF05270BB9279517951C3FF0F66695B8F7B1F720FF05270BB9279597
:2004400017951C3FD0F62795179517FF052700001C3F0BB9B0F629913A9519F7037F1091A4
:200460009702110FC651D0400BB911F010938F0212E01CBB08601AB1137F402F437F54E0B0
:200480005A95F1F70BB91AB94BB95CCF3C9A0C94E505CF93C82F0E941A04882319F0C1FDD4
:2004A00003C0449ACF9108954498FCCFE82FE295EF70F0E0282F2F7081E090E001C0880F1B
:2004C0002A95EAF7DA0112962C9192A1211103C0892B82A3089580958923FBCF811108C0B9
:2004E00084E091E1611102C082E191E10C946903813039F488E191E16111F8CF8CE091E141
:20050000F5CF823039F48BE091E16111EFCF87E091E1ECCF089580913801882321F080E193
:2005200091E00E943F0380913901882321F089E191E10E943F0380913A01882321F089E12D
:2005400091E00E943F0380913B01882321F080E191E10E943F03E8E3F1E0819181110AC07C
:2005600081E0EC33F807C9F78AE191E10E943F03109236010895EF92FF920F931F93CF933D
:200580008C017B01FC01E952FD45E530F10598F4DB0112968C91E85CFE4F8823C1F0C1E012
:2005A000C083C09337010E94D3159093350180933401C0933601A701B80184E60E945602F3
:2005C00081E0CF911F910F91FF90EF9008951082109236010E94A50EEECF809136018823EF
:2005E000B1F080913701882391F080913401909135010E94EB15459750F0109237010E940E
:20060000D31590933501809334010C948B020895CF93DF939C013A9521153F4168F5EC0147
:20062000CC27D170DC01AA27B270AC01442754709C012227387094FF11C080E1CD2B09F492
:2006400080E0AB2B09F08062452B09F08064232B09F08068FB01DF91CF91099481E0CD2B4B
:2006600009F480E0AB2B09F08260452B09F08460232B81F38860EECFDF91CF910895CF93E9
:20068000DF93EC01805E9109089720F06DE87EE0209711F46EE57CE0CE010E9408038C2F7F
:2006A000DF91CF910C94800BCF93DF93EC010E94F00BCE01805E9109089720F064E97EE040
:2006C000209711F465E67CE0CE01DF91CF910C940803CF93DF93EC010E943F03CE01DF9189
:2006E000CF910C94540381E008950C94BB0208950C9477031F93CF93DF9300D000D00F92CA
:20070000CDB7DEB749835A836B833091660189819A8131111DC06623B9F02223A9F00E940B
:200720001A13182F682F89819A810E94C31269817A81812F0F900F900F900F900F90DF91F2
:20074000CF911F910C9424040E94F112182FEFCF0E941A1369817A81EDCFFC01262F408194
:2007600051816281738184810C947A03CF93DF93EC0160E00E94AD03BE01DF91CF910C942C
:2007800078030E945314811102C00E94F7140C9446020C94E60508950E94A50E0E94CB03FF
:2007A0002FEF84E39CE0215080409040E1F700C000000C941E160F931F93CF93DF93EC01B6
:2007C00061E00E94AD038C01BE010E947503882329F1BE01C8010E9478088823F9F0BE015E
:2007E000C8010E94CA088823C9F0BE01C8010E94ED09882399F08A81882339F001158CE59E
:20080000180751F00F3D1C4579F0CE01DF91CF911F910F910C9473030E94CC0380E0DF911C
:20082000CF911F910F9108950E94F714F7CF08950C94170481E00895CF93C82F0E9418048B
:200840008C2FCF910C944902972F70E025E0929F600D711D1124FB019EE1899FE00DF11D78
:200860001124EE0FFF1FE859FF4F859194910895CF93DF930E9424040E940B05EC018115EE
:2008800023E5920790F5811532E5930708F096C081159042C8F4C11581E0D80788F4C53AE8
:2008A000D10548F4C430D10558F4C130D10541F0D0E0C0E005C0CE01805E91090897C0F766
:2008C000CE01DF91CF910895C11591E5D90708F070C0C11520E5D20708F04EC0C11530E4E4
:2008E000D30730F3DF70D06AEBCF811546E59407F0F4C11585E5D80708F075C0C11594E5DD
:20090000D90708F06BC0CE018370992721E030E002C0220F331F8A95E2F7C695C69590E2DC
:20092000C99FE0011124C22BD32BDA68C9CF81152AE5920778F4811539E5930708F05EC066
:20094000811548E5940708F4B3CFD82FCC27C06FD06AB6CF90568115904208F0A9CF8D2F59
:200960008F710E94A20590E0982F882788279F719C012C2BE90140C0CE01E4E096958795D1
:20098000EA95E1F783702C2F26952695237040E2249F90011124382B8C2F8370C1E0D0E09C
:2009A00002C0CC0FDD1F8A95E2F7C22BD32BDC6887CFDC2FCC27C16FD06A82CF83709927B5
:2009C00021E030E002C0220F331F8A95E2F7C695C69580E2C89FE0011124E7CFDC2FCC2780
:2009E000C46FD06A6DCF8C2F0E94A205C82FD0E0DC2FCC27CC27DF71D06262CF8F700E945E
:200A0000A20534E0D695C7953A95E1F7CF709C2FEC01D06955CF82389105B1F1B0F481330F
:200A2000910509F475C048F48932910509F469C08A32910509F473C008958533910509F4D1
:200A400059C08933910501F10895833E9105A9F138F4803E9105F9F0823E910549F1089515
:200A6000863E9105A9F1873E9105C9F1843E910519F520916B0221FF1FC080916A0284FDEC
:200A800014C087EE90E0089520916A022370A1F080EE90E0089520916A0220FD47C0309142
:200AA0006B0230FF09C024FF44C090E080E004C020916A0222FDF7CF089520916A0222FD3B
:200AC0003BC030916B0230FDE3CF24FFF5CFEDCF20916A0223FFF0CF24FDE7CFD2CF209144
:200AE0006A0223FD2CC030916B0231FFEECF84EE90E0089520916A0225FFDECF89E290E01B
:200B0000089520916A0225FFD7CF85E390E0089520916A0226FFD0CF8AE290E008952091D1
:200B20006A0226FFC9CF81E390E0089589E390E0089583EE90E0089582EE90E0089586EE33
:200B400090E0089590916A0292FF06C0282F28712830F9F4877F846093FF06C0282F28713D
:200B60002831F1F4877E846120916B0220FF06C0382F38713830D9F4877F816021FF06C038
:200B8000282F28712831D1F4877E816194FD877E0895282F24712430F9F68B7F8860DCCF61
:200BA000282F2471243101F78B7E8861DDCF382F3171313019F78E7F8860E0CF282F217157
:200BC000213121F78E7E8861E1CF08950C94ED02E82FF0E0E05AFD4F80810895089580EAC8
:200BE0008A95F1F7089500C008950C94EF05F894E82FE295EF70F0E031A1282F2F7081E0EE
:200C000090E001C0880F2A95EAF7982F9095932391A392A1892B82A37894089585E90E94D1
:200C2000F70586E90E94F70587E90E94F70580E30E94F70581E30E94F70582E30E94F70597
:200C400083E60E94F70582E60E94F70581E60E94F70580E60E94F70584E90E94F705EAE5A4
:200C6000F2E0A0E6B2E011921D9282E0E036F807D1F786E00E94B9060C94C103BF92CF921C
:200C8000DF92EF92FF920F931F93CF93DF9303E111E0CAE5D2E0C12CD12CEE24E394F12CE3
:200CA000F80181918F01F894E82FE295EF70F0E021A18F70A70102C0440F551F8A95E2F766
:200CC000CA01922F982B91A392A18095892382A378940E94F305EEE0F1E030E020E0B12C46
:200CE0004191A42FA295AF70B0E090968C9190E04F7002C0959587954A95E2F780FD35C0C5
:200D00008E2D022E01C0880F0A94EAF7B82A2F5F3F4F2530310521F7F801319780810E940C
:200D2000F70555E0C5120E94F5058881B816F9F0B88281E0D82AC394219686E0C812B0CFE5
:200D40002D2D46E060E672E08AE592E00E94BA060E94C9038D2DDF91CF911F910F91FF9061
:200D6000EF90DF90CF90BF90089580E0CFCF80E0E1CF0895FF920F931F93CF93DF93F82EB0
:200D8000092F162FD72FC42F222349F081E080933F010E94D31590933E0180933D0180915D
:200DA0003F018823A1F080913D0190913E010E94EB15069760F0EF2DF02FA12FBD2FCE0FA5
:200DC000DF2FD11DEC17FD0741F410923F01DF91CF911F910F91FF90089581918D93F2CFBA
:200DE0000C946E02AF92BF92CF92DF92EF92FF920F931F93CF93DF93AFE2B1E02CE231E004
:200E000086E4A82E81E0B82E62E371E041E050E00D91802F82958F7090E0FC01C1A10F70B3
:200E20007A01002E01C0EE0C0A94EAF7FE2DF095CF23FC01C1A3C2A1CE29C2A3E901199179
:200E40009E01E12FE295EF70F0E0F1A01F706A01012E01C0CC0C0A94EAF7EC2CE094EF20D0
:200E6000E1A2F2A0FC28F2A2EC0188A190E002C0959587950A95E2F78170E0A1F0E002C09B
:200E8000F595E7951A95E2F790E0E0FD92E0892BF50181935F016A177B0709F0B9CFDF91F3
:200EA000CF911F910F91FF90EF90DF90CF90BF90AF9008952F923F924F925F926F927F9205
:200EC0008F929F92AF92BF92CF92DF92EF92FF920F931F93CF93DF9386E4E82E81E0F82E1B
:200EE0009FE2A92E91E0B92E2CE2C22E21E0D22EC3E4D1E000E411E039E2632E31E0732EB8
:200F0000312C212CD701ED917D016E2F660F660F6E93F50121915F01822F82958F7090E08C
:200F2000FC0180A190E02F7002C0959587952A95E2F781709927F60121916F01422F4295D2
:200F40004F7050E0FA0140A150E02F7002C0559547952A95E2F79A012170332740FF02C050
:200F600022E030E0822BE62FE82BEC93D3018D903D012E01EF70F0E0E75EFE4F80819881D2
:200F8000890F888320E088154CF0F80180818F5F808360E0832D0E94F00621E0082C000C21
:200FA00099088881082E000C990B4427552748195909481759074CF0D8018C9181508C9316
:200FC00061E0832D0E94F00621E02196FE013197D2018C91082E000C990BB4010E941E19A5
:200FE0008083222A33940F5F1F4FB3E03B128ACF822DDF91CF911F910F91FF90EF90DF907A
:20100000CF90BF90AF909F908F907F906F905F904F903F902F9008950F931F93CF93DF9366
:20102000C42FD22FFC0182818823C9F040934B010E94D31590934A018093490180E28C0FE7
:20104000883008F050C0C77081E001C0880FCA95EAF7DF91CF911F910F910C945E0C1091D5
:201060004B01141335C08091490190914A010E94EB15883C910560F5C0E2CD0F1D17B9F095
:2010800080E2810F883040F4177081E001C0880F1A95EAF70E94650CC83048F481E09D2F2E
:2010A000977001C0880F9A95EAF70E945E0C802F0E94560CC830B8F4D77081E001C0880F5E
:2010C000DA95EAF7DF91CF911F910F910C94650C80E28C0F883038F4C77081E001C0880FBE
:2010E000CA95EAF7EFCFDF91CF911F910F9108950F939C01CB01243F4CE5340759F1A8F475
:20110000293DFCE53F0701F12A3D4CE53407D1F1283D3C4591F406E221EE41EE68ED7CE574
:201120000E940C0880E00F910895263FFCE53F07E9F0B0F0273F3C45F9F0FC0182818823DC
:2011400039F110924B01EFCF07E225EE45EE69ED7CE5E6CF06E221EE40EE64EF7CE5E0CF96
:2011600007E225EE44EE65EF7CE5DACF06E221EE42EE66EF7CE5D4CF07E225EE46EE67EFDD
:201180007CE5CECF08E221E045EE6AED7CE5C8CF81E0C9CFCF93DF93EC01FB018281882380
:2011A00009F419C1C230FCE5DF07C0F1C6319CE5D90730F09E012B5F3C452930310570F5D8
:2011C0000E94661490936B0280936A02C031ECE5DE0709F4CFC008F05BC0C8308CE5D80756
:2011E00009F4B6C088F5C430ECE5DE0709F4A8C0C0F4C2308CE5D80709F49CC080916A0224
:201200008260C330DC4509F498C080916A0290916B020E9474140E94A50E80E0DF91CF91C9
:20122000089580916A028061C630ECE5DE0709F484C080916A028860C730DC4508F47DC010
:2012400080916A02806279C0CC308CE5D80709F489C070F480916A028C60CA30ECE5DE07E7
:2012600009F46BC008F478C080916A028E7F65C0CE308CE5D80709F479C080916A028B7F58
:20128000CF30DC4508F459C080916A028F7E55C0CC3FECE5DE0709F457C030F5C3318CE51B
:2012A000D80709F46FC078F4C131ECE5DE0709F465C0C231DC4509F0A8CF0E94A50E809103
:2012C0006A028F773AC0C5318CE5D80709F462C008F476C080916B028160CB3FDC4509F088
:2012E00094CF80936B0291CFC115FDE5DF0709F44DC088F480916B028D7FCE3F9CE5D9078F
:2013000081F380916B028E7FCF3FDC4550F380916B028360E6CFC230FDE5DF0709F459C076
:2013200008F444C080E0C330DD4509F06ECF0E94F9146BCF80916A02816080936A0265CF08
:2013400080916A028460F9CF80916B028260C9CF80916A028064F1CF0E94A50E80916A0279
:201360008068EBCF80916A028D7FE7CF80916A02877FE3CF80916A028F7DDFCF80916A02A3
:201380008F7BDBCF80916A02837FD7CF80916B028C7FA7CF80916A0282FB992790F921E031
:2013A000922790FB82F990FB83F9C7CF80916B02982F909591708E7F892B90FB81F991CF40
:2013C0000E94A50E90916A02892F97FB87F98058B4CF81E0ACCF81E021CFCF93DF93EB0119
:2013E00086319C4511F50E94AF139A81992399F08A7A91E009F490E090934C01811109C0DE
:2014000089E20E948A130E94EE1380E0DF91CF91089585E3F6CF80914C01811104C089E266
:201420000E949113F0CF85E3FBCF81E0EFCF90935201809351010895E0915101F091520147
:20144000309721F00190F081E02D099480E00895E0915101F0915201309721F00280F381A6
:20146000E02D0994089520914F01309150012817390771F09093500180934F01E091510198
:20148000F0915201309721F00680F781E02D0994089520914D0130914E012817390771F06C
:2014A00090934E0180934D01E0915101F0915201309721F00084F185E02D099408950E9407
:2014C000DF156093620170936301809364019093650160935E0170935F018093600190930E
:2014E000610108950E94DF156093620170936301809364019093650160935A0170935B01EC
:2015000080935C0190935D010895089508950C94850A08950C94890A81E594E10E9433163E
:201520000E94860A0C94870A81E008950C94940A089508950E94CA150E940E060E943816AB
:201540000E94F2060C948A0AAF92BF92CF92DF92EF92FF920F931F93CF93DF93CDB7DEB706
:201560002A970FB6F894DEBF0FBECDBF0E94980A0E94990A0E943E0681110E945F0A84E5EE
:20158000A82E81E0B82E10E000E0C02E802F0E94E805E82EF501F1905F01F81609F451C029
:2015A0008091C80181FD0E94EE058F2D8E25D12CFF24F394982F9F2109F43EC00E94960A64
:2015C000882399F0DE82CF82EF2081E009F480E088870E94D3158160782F9A8789874E8138
:2015E0005F8168858A850E94490BF801EC5AFE4F8081F826F0820E945A0781110E94720A49
:201600000E941C0A90915301891791F10E941C0A809353012A960FB6F894DEBF0FBECDBF35
:20162000DF91CF911F910F91FF90EF90DF90CF90BF90AF900C941C04D394FF0CF5E0DF1228
:20164000B9CF0F5F1F4F0630110509F09ECF8FEF89838A831B820E94D3158160782F9D830E
:201660008C8349815A816B818D810E94490BC3CF2A960FB6F894DEBF0FBECDBFDF91CF915D
:201680001F910F91FF90EF90DF90CF90BF90AF900895DF92EF92FF920F931F93CF93DF9348
:2016A000CDB7DEB72B970FB6F894DEBF0FBECDBF7A878B87F42E052F162FE72ED82E6111CD
:2016C0000E94CF131E821D827E2DEC82DD824F2D502F612F8D2D9E812B960FB6F894DEBFBC
:2016E0000FBECDBFDF91CF911F910F91FF90EF90DF900C941B11FC01808191810C945C1309
:20170000CF93C82F882309F469C08238C1F40E941C0A81FD63C089E30E948A130E94EE1379
:201720002FEF81EE94E0215080409040E1F700C0000089E30E949113CF910C94EE138338A1
:20174000A1F40E941C0A80FD49C083E50E948A130E94EE132FEF81EE94E02150804090405A
:20176000E1F700C0000083E5E5CF8438A1F40E941C0A82FD33C087E40E948A130E94EE13DD
:201780002FEF81EE94E0215080409040E1F700C0000087E4CFCF8CEF8C0F813A90F46C2FB6
:2017A00080910001909101010E941015882329F08C2F0E9491130E94EE138C2F0E948A13CB
:2017C000BBCF80E28C0F883048F4C77081E001C0880FCA95EAF70E94B213AECFCF9108957D
:2017E000882309F44BC0823871F40E941C0A81FF45C089E30E948A130E94EE1389E30E946E
:2018000091130C94EE13833859F40E941C0A80FF35C083E50E948A130E94EE1383E5EFCFCF
:20182000843859F40E941C0A82FF28C087E40E948A130E94EE1387E4E2CF9CEF980F913A08
:20184000F0F290E2980F983050F4877091E001C0990F8A95EAF7892F0E94B813D2CF9BE56A
:20186000980F933020F490E080E00C94330A885A873120F490E080E00C94490A08951F937D
:20188000CF93DF93182FEB010E94800B209731F4812FDF91CF911F910C94F00B8FE99FE076
:2018A0000197F1F700C000002197F0CF70E060E0893311F460E570E00C943F0C882321F0E4
:2018C0000E94B2130C94EE130895882321F00E94B8130C94EE130895BF92CF92DF92EF9258
:2018E000FF920F931F93CF93DF936C01D62FC72FFC010281158112951F700E94A813E82E08
:201900008823A1F0E02E002389F08C2F807F803429F080E28D0FE12C883040F082E00E9463
:2019200039140E94A81391E0E82EE926BC2EB2949FE0B922FBE0FB1598F1EB2DF0E0E0574A
:20194000F64E0C9432191C2F1F70C07F11F01295107F0023A9F0112359F080E28D0F883019
:2019600010F0D11109C0812F0E94B2130E94EE138D2F0E94800B14C0812F0E94C213F6CF59
:201980008D2F0E94F00B112359F080E28D0F883010F0D1112CC0812F0E94B8130E94EE132D
:2019A0002B2D2850330B2430310520F40E941C0A0E941C04EE2009F467C10E94A41380FDE8
:2019C00063C1F60112820E949E130E942712C6010E94650E0E949E13DF91CF911F910F91DB
:2019E000FF90EF90DF90CF90BF900C944812812F0E94C813D3CF2C2F2F70F22EC07FC032A8
:201A000019F0F29480EFF822DD2369F0D13049F1002391F1112351F1F601858180FFA8CF0C
:201A20008F70858323C0002381F0111106C00E94D5138F290E945E0CB3CF1130C1F70E94D5
:201A4000D5138F290E94DB13ABCF111106C00E94E4138F2D0E94650CA3CF113009F4A0CF6D
:201A6000F6CF002329F0163008F09ACF8F2DE2CF153008F095CFEDCF112359F3D93349F42B
:201A8000FFEF27EE33E0F15020403040E1F700C000008D2F0E94F00B83CF8C2F837009F035
:201AA00041C001117DCF4D2F429546954770440F440F0D2F0F7010E030E020E0042E04C08B
:201AC000000F111F221F331F0A94D2F760E070E0CB01D4FF0FC06FE070E080E090E004C09C
:201AE000660F771F881F991F4A95D2F76095709580959095C695C695C370602B712B822BE3
:201B0000932BC23049F058F4C13019F00E94D91147CF0E94C71144CF0E94EB1141CF0E9417
:201B2000C5113ECF8695002311F08C2F8170882309F436CF4D2F429546954770440F440F9F
:201B40000D2F0F7010E030E020E0042E04C0000F111F221F331F0A94D2F760E070E0CB013F
:201B6000D4FF0FC06FE070E080E090E004C0660F771F881F991F4A95D2F76095709580956F
:201B80009095C695C695C370602B712B822B932BC23049F058F4C13019F00E949E1200CF13
:201BA0000E948C12FDCE0E94B012FACE0E940112F7CECF70002329F08C2F0E9427128D2FA7
:201BC00039CF8D2F0E94650C8C2F0E944812E8CED23F89F160F4D03FC9F0D13F29F10023CD
:201BE00009F442C01111C4CE8C2F8F7121C0D33F39F1D43FA1F7002369F1CF718C2F0E9495
:201C0000271263E08C2F0E942414CACE002341F0153008F0C5CE8C2F8F710E946B12C0CE8F
:201C2000163008F0BDCEF7CF8C2F8F71002369F20E942712B5CE8C2F8F710023C9F3C5CF50
:201C4000002329F08C2F8F710E941212A9CE0E940D12A6CE81E00E943914123008F4A0CE1F
:201C600082E00E9439149CCE112359F0D93309F010CF8FEF97EEE3E081509040E040E1F7E9
:201C800006CF8C2F8F71A1CFDF91CF911F910F91FF90EF90DF90CF90BF9008950F931F9308
:201CA000CF93DF93EC01688179818A810E9466138C010E94C2120E94C411B801CE01DF91E8
:201CC000CF911F910F910C946C0CCF93DF93EC018B819C81892B29F08881998189238F3FE8
:201CE00059F4DF91CF910895CE010E944E0ECE01DF91CF910C94B603CE010E94DB03811184
:201D0000F3CF0E94A813882361F38A81882349F382E0DF91CF910C943914882321F00E9436
:201D2000C2130C94EE130895882321F00E94C8130C94EE1308950E94CF130E94D2130C946E
:201D4000EE130E9498130C949B0E0E94BF130C94A10EE92FE295EF70E250EE3070F4F0E0B7
:201D6000E456F64E0C943219803F19F020F4883E20F481E00895843FE1F380E00895883EEC
:201D8000C0F3813FD1F7F5CF93FB882780F908950E945C130C94A90ECF93DF9300D000D015
:201DA0000F92CDB7DEB70F900F900F900F900F90DF91CF910895CF93DF9300D000D000D09D
:201DC000CDB7DEB726960FB6F894DEBF0FBECDBFDF91CF9108951F93CF93DF93C09167013B
:201DE00016E0809168018C1304C0DF91CF911F910895D0E01C9FF0011D9FF00D1124E75969
:201E0000FE4F4081518162817381848195810E94DB0E2196C770E5CF4091990150919A01DC
:201E200060919B0170919C0180919D0190919E010C94DB0E1F93CF93DF9380919E01807F4A
:201E4000A9F480919B01882389F080916701C09168016091990170919A01A0919C01B091AB
:201E60009D01D62FD72316E0C81304C0DF91CF911F91089590E0109711F0DF3F19F4019639
:201E80008770F2CF189F9001199F300D1124F901E759FE4F41814713F2CF40814613EFCFDC
:201EA00042814111ECCF438154814A1B5B0B483C510528F780919E018F70806180939E01B3
:201EC000F901E259FE4F80818F708061808389E991E00E94650EDF91CF911F910C94EB0E8B
:201EE000AF92BF92CF92DF92EF92FF920F931F93CF93DF93CDB7DEB761970FB6F894DEBF45
:201F00000FBECDBF8C0185E0F801DE011D9601900D928A95E1F7F80140815181E28089E964
:201F2000C82E81E0D82E60919C0170919D016115710509F461C19091990120919A01892F4D
:201F400082238F3F09F458C1A380B480F0909B01F501E61BF70BFF2009F4FCC080919E0104
:201F6000382F307FE83CF10508F0B2C0311179C0FE2C251323C0941321C0E1101FC08F70B0
:201F8000806180939E010E940C0FC6010E94650E80919E01F80185838F2D61960FB6F89460
:201FA000DEBF0FBECDBFDF91CF911F910F91FF90EF90DF90CF90BF90AF900895AB2829F018
:201FC000842F85238F3F09F033C180E0F82FF170DF2E80FF3CC0809167012091680136E0D2
:201FE000821315C04D875E878D859E850E945C13292F22952F702230F0F0243018F59F7028
:20200000F1F0F8019581907FD1F4D12C1EC090E0389FF001399FF00D1124E759FE4F618170
:20202000651306C06081641303C062816E110FC001968770D5CF9F7011F0882331F3805E27
:20204000883018F3C8010E94650EFD2CA5CFEE2009F4A2CF80919E01816080939E01F12C66
:202060009BCF251306C0941304C0F801EE2009F48DC04D875E878D859E850E94C80E88232B
:2020800019F1EE2009F180919E01803270F02091990130919A0138872F831986BB86AA8644
:2020A0008C87CE0107960E94650E86E0F801A9E9B1E001900D928A95E1F70E941A0F0E9476
:2020C0000C0FFF24F39468CFC8010E94650EF9CF311113C07A2DB98AA88A6E2D89890E94DE
:2020E000CC0E89E991E00E94650E86E0F60111928A95E9F70E940C0FB2CF25130FC0941323
:202100000DC0E1100BC0F8018583C8010E94650E86E0F60111928A95E9F73ECF4D875E8792
:202120008D859E850E94C80E882371F2EE2061F280919E01803208F4B8CF20919901309192
:202140009A013A8329831B82BD82AC828E83CE010196A9CFE83CF10508F041C0FE2CEE2037
:2021600009F4B2CF25132AC0941328C080919E0180FD1BC0982F907FC1F0F8018583903FD1
:2021800031F0982F907F905F8F70892B8583C8010E94650E86E0F801A9E9B1E001900D920E
:2021A0008A95E1F70E940C0FF7CE86E0F801A9E9B1E001900D928A95E1F7EECE4D875E8788
:2021C0008D859E850E94C80E81116FCF80919E01816080939E01C8010E94650EDDCE7A2D0F
:2021E000B98AA88A6E2D89890E94CC0E86E0F60111928A95E9F7D6CFEE2009F465CF4D878A
:202200005E878D859E850E94C80EF82E882309F45BCF86E0F801A9E9B1E001900D928A9563
:20222000E1F789E991E00E947B0B0E941A0FBACF81E08E25CBCE1F93CF93DF93CDB7DEB71B
:202240002C970FB6F894DEBF0FBECDBF4F83588769877A878B879C87CE0107960E94700F10
:20226000882369F08A859B85892B39F04F815885842F85238F3F09F071C016E05FC086E0D3
:20228000FE013796DE01119601900D928A95E1F78A859B85892B89F38F81988589238F3FBF
:2022A00061F32091680130E0C901019687709927409167014817190671F40E94A50E109275
:2022C00068011092670186E0E9E9F1E0DF011D928A95E9F7D2CF96E0929FD001939FB00DEC
:2022E0001124A759BE4FFE01319601900D929A95E1F7809368010E94EB0EBFCF819FC00119
:20230000112487599E4F0E94700F8823E9F0E09167011E9FF0011124E759FE4F408151813A
:2023200062817381848195810E94DB0E8091670190E00196877099278093670180916701F5
:20234000909168018913DACF2C960FB6F894DEBF0FBECDBFDF91CF911F91089569857A859B
:202360008B859C850E94DB0E88CF08950C94B5110E94B6116093B7017093B8018093B901AA
:202380009093BA010C949B0E08950C94B8110F931F930091B7011091B8012091B9013091ED
:2023A000BA01602B712B822B932B1F910F910C94B8110F931F930091B7011091B80120916F
:2023C000B9013091BA0160237123822393231F910F910C94B8110F931F930091B70110915E
:2023E000B8012091B9013091BA0160277127822793271F910F910C94B8110C94B5110C94FC
:20240000FD110E94FF116093B3017093B4018093B5019093B6010C949B0E60E070E0CB0155
:202420000C9401120F931F9341E050E060E070E08A019B0104C0000F111F221F331F8A95D8
:20244000D2F7C901B8011F910F910C9401120F931F9341E050E060E070E004C0440F551F6D
:20246000661F771F8A95D2F78091B3019091B401A091B501B091B6018A019B01082B192B41
:202480002A2B3B2BC901B8011F910F910C9401120F931F9341E050E060E070E004C0440FAF
:2024A000551F661F771F8A95D2F7CB01BA0160957095809590950091B3011091B40120919E
:2024C000B5013091B60160237123822393231F910F910C9401120F931F9341E050E060E074
:2024E00070E004C0440F551F661F771F8A95D2F78091B3019091B401A091B501B091B60184
:202500008A019B01082719272A273B27C901B8011F910F910C9401120F931F930091B30153
:202520001091B4012091B5013091B601602B712B822B932B1F910F910C9401120F931F937D
:202540000091B3011091B4012091B5013091B60160237123822393231F910F910C9401128C
:202560000F931F930091B3011091B4012091B5013091B60160277127822793271F910F91BB
:202580000C9401120895E92FEE0FEE0F9E0F890F982F977041E001C0440F9A95EAF7869566
:2025A0008695869595E0899FF0011124E156FE4F30E020E070E05191DF011197CB01022ED8
:2025C00002C0969587950A94E2F7817081958527842385278C932F5F3F4F2530310559F75F
:2025E0000895E92FEE0FEE0F9E0F890F982F977086958695869525E0829FF0011124E15645
:20260000FE4F50E040E080E0219130E0092E02C0369527950A94E2F721703327042E01C026
:20262000220F0A94EAF7822B4F5F5F4F4530510559F70895BF92CF92DF92EF92FF920F9352
:202640001F93CF93DF938C01C090B301D090B401E090B501F090B6018091B7019091B8014E
:20266000A091B901B091BA01C82AD92AEA2AFB2ACFE1D0E0BC2ED701C6010C2E04C0B69513
:20268000A795979587950A94D2F780FD0EC0219788F7B12C8B2DDF91CF911F910F91FF9089
:2026A000EF90DF90CF90BF900895B8018C2F0E943804019761F3EECFCF93DF93EC010E9483
:2026C0001A13BE01DF91CF910C9438041F93CF93DF93EB0190916601992331F0CB01DF914F
:2026E000CF911F910C945C13882379F0CB010E941A13182F682FCE010E94C312BE01812F79
:20270000DF91CF911F910C943804CB010E94F112182FF4CF682F80910001909101010C9476
:202720004615682F80910001909101010C94481580910001909101010C944A158091BB0174
:2027400085958595859508958091BB01877008959091BB01977081E009F480E008958091DD
:20276000C70108959091C701892B8093C701089580959091C70198239093C70108951092FC
:20278000C70108959091C601892B8093C601089580959091C60198239093C60108951092E0
:2027A000C60108951092C50108958091BC01089508950C94D8139091BC01981721F080936C
:2027C000BC010C94D91308958091BC01882329F01092BC0180E00C94D9130895E091000127
:2027E000F09101018091C7018083E0910001F091010180819091C601892B8083E091000173
:20280000F091010180819091C501892B80839091BC01992381F0E0910001F0910101808195
:20282000892B808380910001909101010E94FE1481110E94E41380910001909101010C94F8
:20284000280A08950C94211498E0899F90011124622B6093BB010E9427128091BB01859570
:20286000859585950C9422141092BB0180E00C9422149091BB01809589238093BB01282FF6
:20288000277071F4282F082E000C330B9217130639F08595859585950E9448120C94341448
:2028A000089580E0089590E080E00E94541921E08B3E9E4F09F020E0822F089582E090E0CF
:2028C0000C944C1983E090E00C944C19CF9384E090E00E944C19C82F81E290E00E944C190D
:2028E000982F8C2FCF910895CF93C92F682F84E090E00E945A196C2F81E290E0CF910C9411
:202900005A19AB01BC018FE090E00C946C19AB01BC0183E190E00C946C1960E070E0CB0119
:202920000C94871460E070E0CB010E9481140C948D146BEE7EEF90E080E00E94781960E07F
:2029400082E090E00E945A1960E083E090E00E945A191092B7011092B8011092B9011092B5
:20296000BA0160E084E090E00E945A1960E081E290E00E945A1960E085E090E00E945A1921
:2029800060E086E090E00E945A196FEF87E090E00E945A1940E050E0BA0188E090E00E943D
:2029A0006C1960E08DE090E00E945A1940E050E0BA0188E190E00E946C1960E087E190E03D
:2029C0000E945A1940E050E0BA018CE190E00E946C1960E080E290E00E945A1940E050E05C
:2029E000BA0188E190E00E946C190C9492140C949914682F8EE090E00C945A199C012E5FD7
:202A00003F4FAC01485F5F4F80E02417350709F40895F90191919F019923B9F38F5FF5CFDF
:202A2000662349F0FC01329608962191261729F0E817F907D1F780E0089581E008959C010A
:202A4000FC0132969FEF80E04191461751F09F3F19F4411101C0982F8F5F8630A9F79F3F6C
:202A600009F40895290F311D97FD3A95F90162830895FC01329608962191261303C0DF0166
:202A800011971C92E817F907B9F708950C941F150C943915029626E0FC0111922A95E9F7F5
:202AA0000895089508950C9452158091CA01882349F10E94531580E00E941C041092C901DF
:202AC00088E190E020E40FB6F894A895809360000FBE2093600083B7817F846083BF83B79E
:202AE000816083BF7894889583B78E7F83BF0FB6F894A89580916000886180936000109204
:202B000060000FBE08950895CF930E9451150E943E060E948315C0E08C2F0E94E805811148
:202B200005C0CF5FC630C1F7CF91089581E0FCCF08950C9498150E94A50E0E941C0A0E9422
:202B40001C040C9499151F921FB61F9211248F939F93AF93BF938091C901811113C0809162
:202B6000660290916702A0916802B09169024196A11DB11D8093660290936702A093680215
:202B8000B0936902BF91AF919F918F911F901FBE1F90189582E084BD93E095BD9AEF97BD7A
:202BA00080936E0008952FB7F8948091660290916702A0916802B09169022FBF08952FB7CA
:202BC000F894609166027091670280916802909169022FBF08959C014FB7F894809166026C
:202BE00090916702A0916802B09169024FBF821B930B089578941F921FB61F9211248F9384
:202C00009F93AF93BF938091660290916702A0916802B09169020196A11DB11D8093660206
:202C200090936702A0936802B0936902BF91AF919F918F911F901FBE1F90189588E198E014
:202C40000FB6F894A895809360000FBE90936000A895F894D8E0CEEF28E3299320E0299362
:202C600014BEFFCF0895909333018093320108950E945314811102C00E94F7140E945E14BF
:202C80008093C8010E94661490936B0280936A020E946214682F70E090E080E00E94C511E6
:202CA0006091B3017091B4018091B5019091B6010C94FF110E94D315EC0180E890E00FB656
:202CC000F89480936100909361000FBE0E948C0A0E940319539A80E0815009F047C05398A4
:202CE00078940E949A0A0E943D170E94170AFFEF20E732E0F15020403040E1F700C0000019
:202D000001E01CE0809193028823C1F1109293020E94D315EC018091CA01882321F01092EB
:202D2000CA010E949B158091CA018823A9F10E9455150E948415882329F3F8949AB15B9A7B
:202D4000892F8C608AB98BB181278BB98FE7E8E3F1E08150E040F040E1F700C000008BB15D
:202D600081278BB99AB95B987894CCCFA895EFE9FFE03197F1F700C00000AECF8091CA01BD
:202D80008111D1CFCE010E94EB15069760F20093CA010E945515C7CF0E9413188091990228
:202DA000882329F08091770284FD0E94A40A0E94E4160E94980A0E94990AA4CF80915902F0
:202DC0000895089508950895CF93DF93CAE0D0E08091770284FF1AC08091D6019091D70189
:202DE000981789F028E0829FC001112468E088529E4F0E940F188091D60190E001968F70C6
:202E000099278093D601DF91CF9108950E9413188FE99FE00197F1F700C000002197C1F628
:202E2000F2CFCF93DF93EC01A091D701B0E0CD0101968F7099272091D601281779F093E0B0
:202E4000AA0FBB1F9A95E1F7A852BE4F98E0FE0101900D929A95E1F78093D7010E9413186B
:202E60000E94E41688E0FE01AEECB1E001900D928A95E1F7DF91CF91089582E091E0089520
:202E8000FC01808180768032F1F48181813061F484819581892BB9F48EEC91E0909395027E
:202EA0008093940288E00895823041F488E592E0909395028093940281E008958A3029F466
:202EC00083818093580280E008958930E1F7828193818115924069F484819581892B49F40B
:202EE00081E08093CD01868197819093CC018093CB018FEF0895FC018091CB019091CC01BF
:202F0000892B61F08091CD01813041F49081909359021092CC011092CB0108958FEF0895C3
:202F20000895FC019381933039F130F49130A1F09230D1F080E008959132E9F19232D1F7D7
:202F400084819581892BB1F786E091E0909395028093940280E4089586EC90E09093950223
:202F60008093940282E1089584EA90E0909395028093940282E2089582818130A1F0882376
:202F800051F08230B9F688ED90E090939502809394028CE0089582E091E09093950280939E
:202FA000940284E0089586EE90E090939502809394028AE1089582818111BCCF86EB90E02A
:202FC000909395028093940289E008951F93CF93DF93E82F792F162FEA01888184FF1CC0AB
:202FE000298188E828272983CE010296DC012E2F372F512F5E0FF90121912D939F01452F48
:203000004E1B1416C4F3612F0E9401011C5F1883DF91CF911F9108958AE58883E5CF47E7A3
:2030200052E00C94E617CF93DF9360919602635067FD12C080919202CCE0D0E0C81BD109BD
:20304000C656DD4F80919102803108F054C0CE010E9490171092960280910D0184FF3EC0D5
:2030600080910C018F3FD1F1C82F893008F0C8E0982F9C1B90930C0190916C0228E892274C
:2030800090936C028823E9F080919402909195022091900226FFAEC0FC012C2FADE6B2E069
:2030A00034913D9331962150D9F79C012F5F3F4F8FEF8C0F820F932F911D909395028093D3
:2030C00094026C2F8DE692E00E940101CC5FCC3019F08FEF80930C01C0930D0184E199B158
:2030E0009C7031F48150D9F71092970210928F02DF91CF9108958D3209F069C0683009F0B1
:20310000A9CF83EC80936C028AE580930D01109290028881807671F0CE010E9440178F3F8D
:20312000C1F4988197FD8E8190E89093900280930C0190CF2A81109275029981911111C021
:203140001092760225E732E082E030939502209394029F819111EBCF9E81981740F7892FF9
:20316000E6CF953029F42093970225E732E0EDCF963099F49B81913021F4CE010E94911734
:2031800008C09230D1F39330C1F39132B1F39232A1F390E490939002C2CF983089F09930E7
:2031A00019F420939902E1CF9A3071F09B30E9F69BE4909378029093B10290938402D5CFF0
:2031C00029E932E081E0C1CF25E732E0FBCF8091900287FF3FCFCE010E947B178F3F21F4D5
:2031E0008EE180930D0136CF882309F433CF10920C0130CFDC012C2FEDE6F2E03D91319373
:203200002150E1F752CFCF93DF93E9E6F0E0808188608083E99AC7E7D2E08BE48983A0EBFC
:20322000B2E011968C931197E3E8F2E081838AE588838C938083DF91CF91089597FB072E1D
:2032400016F4009407D077FD09D00E94381907FC05D03EF4909581959F4F089570956195EE
:203260007F4F0895EE0FFF1F0590F491E02D0994AA1BBB1B51E107C0AA1FBB1FA617B70752
:2032800010F0A61BB70B881F991F5A95A9F780959095BC01CD010895F999FECF92BD81BD6F
:2032A000F89A992780B50895A8E1B0E042E050E00C948019262FF999FECF92BD81BDF89A73
:2032C000019700B4021639F01FBA20BD0FB6F894FA9AF99A0FBE08950396272F0E945B19C4
:2032E0000E945A19252F0E945B19242F0C945B190196272F0E945B190C945A19DC01CB0129
:20330000FC01F999FECF06C0F2BDE1BDF89A319600B40D9241505040B8F70895F894FFCFCB
:20332000A30CA30CFB0CFB0CD00CD00CD00CD00C4D0DD90DE80DE80DB40EB40EBD0EBD0E6D
:20334000BF0EBD0EBD0EBD0EB40EB40EC40EBD0EBD0EC40EBD01DE161117E116E216E316BF
:20336000FF5A636261609495969730313200FF0100010000FFFF0000010001FF000202027F
:20338000903565333491FFFFFFFFFFFFFFFFFFFFFFFFFFFFFFFFFFFFFFFFFFFFFFFFFFFF25
:2033A000FFFFFFFFFFFFFFFFFFFFFFFFFFFFFFFFFFFFFFFFFFFFFFFFFFFFFFFFFFFFFFFF2D
:2033C000FFFFFFFFFFFFFFFFFFFFFFFFFFFFFFFFFFFFFFFFFFFFFFFFFFFFFFFFFFFFFFFF0D
:2033E000FFFFFFFFFFFFFFFFFFFFFFFFFFFFFFFFFFFFFFFFFFFFFFFFFFFFFFFFFFFFFFFFED
:2034000032E0FBCF8091A50287FF3FCFCE010E9496188F3F21F48EE18093280136CF882327
:2034200009F433CF1092270130CFDC012C2FE2E8F2E03D9131932150E1F752CFCF93DF9320
:20344000E9E6F0E0808188608083E99ACCE8D2E08BE48983A5ECB2E011968C931197E8E91B
:20346000F2E081838AE588838C938083DF91CF91089597FB072E16F4009407D077FD09D0E4
:203480000E94531A07FC05D03EF4909581959F4F0895709561957F4F0895EE0FFF1F059037
:2034A000F491E02D0994AA1BBB1B51E107C0AA1FBB1FA617B70710F0A61BB70B881F991F49
:2034C0005A95A9F780959095BC01CD010895F999FECF92BD81BDF89A992780B50895A8E162
:2034E000B0E042E050E00C949B1A262FF999FECF92BD81BDF89A019700B4021639F01FBA5C
:2035000020BD0FB6F894FA9AF99A0FBE08950396272F0E94761A0E94751A252F0E94761A14
:20352000242F0C94761A0196272F0E94761A0C94751ADC01CB01FC01F999FECF06C0F2BD40
:20354000E1BDF89A319600B40D9241505040B8F70895F894FFCFBB0DBB0D130E130EE80D93
:20356000E80DE80DE80D650EF10E000F000FCC0FCC0FD50FD50FD70FD50FD50FD50FCC0FF1
:20358000CC0FDC0FD50FD50FDC0FC909D909E90900000000000000000000000000001601F5
:2035A00000001A11FFD201F9172C18FC17FD17FE17FF5A636261609495969730313200FFB7
:2035C0000100010000FFFF0000010001FF0002020290356533349100FFFFFFFFFFFFFFFFCA
:2035E000FFFFFFFFFFFFFFFFFFFFFFFFFFFFFFFFFFFFFFFFFFFFFFFFFFFFFFFFFFFFFFFFEB
:20360000B2198F3FC1F4988197FD8E8190E89093A5028093270190CF2A8110928A029981D1
:20362000911111C010928B022AE832E082E03093AA022093A9029F819111EBCF9E8198174B
:2036400040F7892FE6CF953029F42093AC022AE832E0EDCF963099F49B81913021F4CE018F
:203660000E94031A08C09230D1F39330C1F39132B1F39232A1F390E49093A502C2CF983070
:2036800089F0993019F42093AE02E1CF9A3071F09B30E9F69BE490938D029093C6029093B4
:2036A0009902D5CF2EEA32E081E0C1CF2AE832E0FBCF8091A50287FF3FCFCE010E94ED19FF
:2036C0008F3F21F48EE18093280136CF882309F433CF1092270130CFDC012C2FE2E8F2E010
:2036E0003D9131932150E1F752CFCF93DF93E9E6F0E0808188608083E99ACCE8D2E08BE417
:203700008983A5ECB2E011968C931197E8E9F2E081838AE588838C938083DF91CF9108955C
:2037200097FB072E16F4009407D077FD09D00E94AA1B07FC05D03EF4909581959F4F0895C9
:20374000709561957F4F0895EE0FFF1F0590F491E02D0994AA1BBB1B51E107C0AA1FBB1FED
:20376000A617B70710F0A61BB70B881F991F5A95A9F780959095BC01CD010895F999FECF9C
:2037800092BD81BDF89A992780B50895A8E1B0E042E050E00C94F21B262FF999FECF92BD5D
:2037A00081BDF89A019700B4021639F01FBA20BD0FB6F894FA9AF99A0FBE08950396272F25
:2037C0000E94CD1B0E94CC1B252F0E94CD1B242F0C94CD1B0196272F0E94CD1B0C94CC1B1F
:2037E000DC01CB01FC01F999FECF06C0F2BDE1BDF89A319600B40D9241505040B8F7089598
:20380000F894FFCF120F120F6A0F6A0F3F0F3F0F3F0F3F0FBC0F4810571057102311231189
:203820002C112C112E112C112C112C112311231133112C112C113311200B300B400B0000FD
:20384000000000000000000000000000160100002C00FFD20150198319531954195519FF08
:203860005A636261609495969730313200FF0100010000FFFF0000010001FF0002020290E9
:20388000356533349100FFFFFFFFFFFFFFFFFFFFFFFFFFFFFFFFFFFFFFFFFFFFFFFFFFFFB0
:2038A000FFFFFFFFFFFFFFFFFFFFFFFFFFFFFFFFFFFFFFFFFFFFFFFFFFFFFFFFFFFFFFFF28
:2038C000FFFFFFFFFFFFFFFFFFFFFFFFFFFFFFFFFFFFFFFFFFFFFFFFFFFFFFFFFFFFFFFF08
:2038E000FFFFFFFFFFFFFFFFFFFFFFFFFFFFFFFFFFFFFFFFFFFFFFFFFFFFFFFFFFFFFFFFE8
:20390000FFFFFFFFFFFFFFFFFFFFFFFFFFFFFFFFFFFFFFFFFFFFFFFFFFFFFFFFFFFFFFFFC7
:207000006BC00000AAC000008EC000008CC000008AC0000088C0000086C0000084C0000025
:2070200082C0000080C000007EC000007CC000007AC0000078C0000076C0000074C0000078
:2070400072C0000070C000006EC000006CC000006AC0000068C0000066C0000064C00000D8
:2070600062C0000060C00000EC2DFD2DB7B6B0FCFDCF27BFE895B7B6B0FCFDCF21E1B7B6EF
:20708000B6FCF4CF089509021200010100803209040000000000000012011001FF000008D5
:2070A000C016DC050201010200010E035500530042006100730070001C037700770077004F
:2070C0002E00660069007300630068006C002E00640065000403090411241FBECFEFD8E076
:2070E000DEBFCDBF24B7D8E0CEEF39913833399109F03FEF30933C0120933B0111E0A0E091
:20710000B1E0E4E8F8E702C005900D92A630B107D9F721E0A6E0B1E001C01D92AB33B207C0
:20712000E1F785D1ADC36CCFA82FB92F80E090E041E050EA609530E009C02D91822797952B
:20714000879510F084279527305EC8F36F5FA8F30895EADF8D939D930895CF93CFB7CF935D
:20716000DF93C3954B9BE9F74B9B0BC04B9B09C04B9B07C04B9B05C04B9B03C04B9B01C077
:2071800089C06F93C0911E01DD27CB5DDE4F2F9365E54B9B03C02F916F91E6CF0F931F935D
:2071A0004F9320E040E15F9309B10C7003FB27F93F9350E03BE039C01C7040642F77012F6A
:2071C0005F5F1EC0406819B11C702F7752501FC0406409B12F770C70D1F15F5F00C023C04B
:2071E000406219B12F771C7091F15F5F00C025C00C701027515012F45D5F000011502795D9
:207200002C3F19B1C8F61C700127015027952C3FC8F64227499309B10C7010274F731150BC
:2072200027952C3FA8F64695469519B11C7079F00127015027952C3F98F66B5A60F331504D
:2072400009B1B0F600C011E01CBB002717C03B503195C31BD04011E01CBB0881033CF9F090
:207260000B34E9F020911C011981110F1213EDCF093651F10D3211F0013E39F700932301A6
:207280003F915F914F911F910F912F916F91CCB3C0FD67CFDF91CF91CFBFCF9118952091B0
:2072A0002301222369F310912101112339F534303AF13093210120931D0110911E013BE0C4
:2072C000311B30931E011CC0009121010130B4F40AE53091010134FD14C000930101C1E12A
:2072E000D1E013C0052710E000C000000BB91AC0052710E0221F1DC010E021C04AE502C094
:2073000032ED432FC4E1D0E032E01AB11C605B9A0BB11AB95CE020E865E320FF05270BB90F
:20732000279517951C3FF0F66695B8F7B1F720FF05270BB9279517951C3FD0F62795179552
:2073400017FF052700001C3F0BB9B0F629913A9519F7037F10912201110FC651D0400BB93C
:2073600011F010931C0111E01CBB08601AB1137F402F437F54E05A95F1F70BB91AB94BB9E8
:207380007FCFDC0113964C91139714963C91149713968D919C9114979827892798271296FB
:2073A0002C911297203339F43370E32FF0E0EE5FFE4F80810895283561F489E0E1E0F0E07E
:2073C000442371F089E0E3E0F0E0483049F080E00895203579F4411107C089E0F0E0E0E067
:2073E000809357008491089589E0E2E0F0E0483071F7F6CF203229F4880F991FFC01849101
:207400000895283229F4FC01EE0FFF1F3196F7CF203A09F41FC2203C21F415966C9122D26E
:20742000D6CF2F3FA1F681EF80930F01D0CF1AB880E28BB981E085BF82E085BFE0E0F1E715
:20744000A89531978040E1F780913B01877F21F480913C01882371F04D9B0CC0F894539AA0
:207460001BB81DBA1092690081E085BF15BEF0E0E0E009958EEF80930F0114BE0FB6F894EE
:20748000A89580916000886180936000109260000FBE80916900826080936900E89A539ACC
:2074A0008CE0E0E0F5E3A89531978040E1F75398789410912101135017FD5AC080911E01B0
:2074C000CCE0D0E0C81BD109CB5DDE4F80911D018D3209F00BC1183009F048C083EC8093C0
:2074E00011018AE580930101109210013881832F80769981882309F49BC046E051E050938B
:20750000200140931F01933069F4CE013ADF8093090184E09F81911127C09E81981720F542
:20752000892F22C0953009F4DFC09A3009F4DCC08CEF890F863008F070C04A815B81509372
:207540000E0140930D01993009F46EC08E8180930C012D81227020930B0190930A0137FFB5
:207560008FEF90E89093100180930001109221018091010184FF36C0C0910001CF3F91F19B
:207580008C2FC93008F088E09C2F981B909300019091110128E8922790931101CC23B1F074
:2075A0004091100147FF2FC190910C01C82F981708F4C92F9C1B90930C01D0900A01D0E0E9
:2075C00082E1E82E81E0F82EDC1304C16C2F82E191E0BFDDCC5FCC3019F08FEF809300012A
:2075E000C093010184E199B19C7031F48150D9F71092220110921C0180910F01803108F463
:207600001EC14D9B05C080910F01805180930F0180910F0181114DCF21CF80910F01923027
:2076200029F48E7F80930F0180E074CF8160FACF2A8110921A0191110AC010921B012AE113
:2076400031E082E03093200120931F0163CF953029F4209322012AE131E0F4CF963099F5E3
:207660009B81913059F488E990E79093200180931F0182E190E4909310014CCF923019F48C
:2076800086E890E7F2CF9330A9F7211108C084ED90E79093200180931F0184E0EBCF213019
:2076A00041F488EB90E79093200180931F018CE1E1CF2230F9F68AEA90E790932001809394
:2076C0001F018EE0D7CF983059F0993019F420932401C1CF81E09A3009F4BDCF80E0BBCF89
:2076E00024E231E081E0AECF81E014CF8091100187FF3CCF00910C01011708F4102F011B91
:2077000000930C01F12CF11628F001112FCF109200012CCF80910D0190910E0120910A01D4
:20772000273058F069919C012F5F3F4F30930E0120930D0197D0F394E6CF8115904738F725
:20774000F394F394F894E0910D01F0910E012991399181E0090180935700E8951124789469
:2077600080910D0190910E01029690930E0180930D018F779927892B51F00111C4CFF11668
:2077800008F4C1CF80910B01882309F4BCCFF894E0910D01F0910E01329783E080935700DC
:2077A000E895789407B600FCFDCFF894E0910D01F0910E01329785E080935700E8957894FF
:2077C00007B600FCFDCFF89481E180935700E895789499CF00910D0110910E0126E02D1544
:2077E00078F4C80137D0F7018083FFEFEF1AFF0A0F5F1F4F10930E0100930D01DF5FE4CE33
:20780000F8018491F0CF90911F0130912001282F290FE92FF32FA2E1B1E046FF0BC0949166
:207820009D9331962E13FBCFF0932001E0931F01C82FCCCE91919D932E13FCCFF5CF4D9976
:20784000E7CE80910F01823008F4E2CE80910F018250DCCEF999FECF92BD81BDF89A992719
:2078600080B50895262FF999FECF1FBA92BD81BD20BD0FB6F894FA9AF99A0FBE01960895C6
:0A788000F894FFCFFF5A1E950F0089
:00000001FF
