:100000000C94A3000C94EA000C9405010C94EA00F3
:100010000C94EA000C94EA000C945F160C94EA002D
:100020000C94EA000C94EA000C94EA000C94EA00A8
:100030000C94EA000C94EA000C94B6160C94EA00B6
:100040000C94EA000C94EA000C94EA000C94EA0088
:100050000C94EA000C94EA000C94EA000C94EA0078
:100060000C94EA000C94EA000401120118010C013E
:1000700007011E111F11201114010B012111221162
:1000800023110D0117012411251126110E01110153
:10009000301127112F111B013301635D665D655D12
:1000A000645D675D09022200010100A09609040059
:1000B00000010301010009210101000122400007A4
:1000C0000581030800011201100100000008EDDEA7
:1000D00002000100010200010C03730069006D00C1
:1000E0006300700000001A036400730061006E007A
:1000F0006300680065007A007300650063006F00AC
:1001000000000403090405010906A101050719E01F
:1001100029E71500250195087501810295017508EB
:1001200081030507190029FF150026FF00950675B4
:1001300008810005081901290595057501910295A9
:100140000175039103C011241FBECFEFD8E0DEBFBD
:10015000CDBF04B603FE27C08091BE029091BF02BE
:10016000A091C002B091C1028730904BA740B04B24
:10017000D1F41092BE021092BF021092C0021092EF
:10018000C10214BE84B7877F84BF0FB6F894A895C8
:1001900080916000886180936000109260000FBEC3
:1001A000E0E0F8E3099511E0A0E0B1E0EEEAF4E365
:1001B00002C005900D92A233B107D9F722E0A2E365
:1001C000B1E001C01D92AE3BB207E1F70E943A12C6
:1001D0000C943B1A0C940000A82FB92F80E090E0FB
:1001E00041E050EA609530E009C02D918227979553
:1001F000879510F084279527305EC8F36F5FA8F3CA
:100200000895EADF8D939D930895CF93CFB7CF9351
:10021000DF93C3954B9BE9F74B9B10C04B9B0EC0E4
:100220004B9B0CC04B9B0AC04B9B08C04B9B06C012
:10023000C0919502C395C09395028EC06F93C091F3
:100240009402DD27C456DD4F2F9365E54B9B03C019
:100250002F916F91E1CF0F931F934F9320E040E1D7
:100260005F9309B10C7003FB27F93F9350E03BE02B
:1002700039C01C7040642F77012F5F5F1EC040683B
:1002800019B11C702F7752501FC0406409B12F77ED
:100290000C70D1F15F5F00C023C0406219B12F77AD
:1002A0001C7091F15F5F00C025C00C701027515089
:1002B00012F45D5F0000115027952C3F19B1C8F66C
:1002C0001C700127015027952C3FC8F642274993FF
:1002D00009B10C7010274F73115027952C3FA8F6C9
:1002E0004695469519B11C7079F001270150279564
:1002F0002C3F98F66B5A60F3315009B1B0F600C04C
:1003000012E01CBB00271CC03B503195C31BD040E2
:1003100012E01CBB0881033C21F10B3411F1209148
:1003200091021981110F1213EDCF4A81441F093632
:1003300079F10D3211F0013E29F74F7009F0042FC9
:1003400000939A023F915F914F911F910F912F91CE
:100350006F91CCB3C1FD5DCFDF91CF91CFBFCF9176
:10036000189520919A02222369F310919802112383
:1003700009F049C034300AF448C030939802209301
:100380009302109194023BE0311B309394023DC0E4
:10039000009198020130BCF50AE54F7049F43091A4
:1003A0000D0134FD33C000930D01CEE6D2E032C022
:1003B000433059F0443091F03091790234FD26C039
:1003C00000937902CAE7D2E025C03091B20234FD31
:1003D0001DC00093B202C3EBD2E01CC03091850275
:1003E00034FD14C000938502C6E8D2E013C005278F
:1003F00010E000C000000BB91AC0052710E0221F52
:100400001DC010E021C04AE502C032ED432FC4E117
:10041000D0E032E01AB11C605B9A0BB11AB95CE013
:1004200020E865E320FF05270BB9279517951C3FAA
:10043000F0F66695B8F7B1F720FF05270BB92795B9
:1004400017951C3FD0F62795179517FF0527000035
:100450001C3F0BB9B0F629913A9519F7037F10911B
:100460009902110FC651D0400BB911F010939102AF
:1004700012E01CBB08601AB1137F402F437F54E089
:100480005A95F1F70BB91AB94BB95CCFE82FE29541
:10049000EF70F0E0282F2F7081E090E001C0880F0E
:1004A0002A95EAF7DA0112962C9192A1211103C044
:1004B000892B82A3089580958923FBCF81110AC0DF
:1004C00086E091E1611102C089E091E10E94590347
:1004D00081E00895813039F48AE091E16111F6CF2D
:1004E0008CE191E1F3CF823099F78DE191E16111D7
:1004F000EDCF85E091E1EACF80913801882321F0AA
:1005000080E191E00E942A0380913901882321F043
:1005100085E191E00E942A0380913A01882321F02D
:1005200089E191E00E942A0380913B01882321F018
:1005300083E191E00E942A03E8E3F1E081918111D7
:100540000AC081E0EC33F807C9F78AE191E10E9423
:100550002A03109236010895EF92FF920F931F9392
:10056000CF938C017B01FC01E356FD45E530F1059D
:1005700098F4DB0112968C91E85CFE4F8823C1F061
:10058000C1E0C083C09337010E948F16909335015C
:1005900080933401C0933601A701B80184E60E941C
:1005A000460281E0CF911F910F91FF90EF90089547
:1005B0001082109236010E94A907EECF8091360179
:1005C0008823B1F080913701882391F08091340124
:1005D000909135010E94A716459750F0109237016F
:1005E0000E948F1690933501809334010C947C0205
:1005F00008959C013A9521153F4150F5FC01EE27E5
:10060000F170BC0166277270AC01442754709C01E4
:100610002227387094FF0EC080E1EF2B09F480E0B0
:10062000672B09F08062452B09F08064232B89F049
:100630008068089581E0EF2B09F480E0672B09F0D2
:100640008260452B09F08460232B19F0886008959F
:1006500080E00895CF93DF93EC010E94F9029E01A0
:10066000205E31092830310510F0209739F40E94BE
:1006700064058C2FDF91CF910C9486040E94910722
:10068000F8CFCF93DF93EC010E94F604CE010E94D5
:10069000F9029E01205E31092830310510F0CD2B82
:1006A00021F4DF91CF910C946B05DF91CF910C94E5
:1006B0009807CF93DF93EC010E942A032FEF83EC7E
:1006C00099E0215080409040E1F700C00000CE0149
:1006D000DF91CF910C94410381E008950C94AC021A
:1006E00008950C9470031F93CF93DF9300D000D034
:1006F0000F92CDB7DEB749835A836B8330913D01AA
:1007000089819A8131111DC06623B9F02223A9F095
:100710000E945709182F682F89819A810E94000929
:1007200069817A81812F0F900F900F900F900F9019
:10073000DF91CF911F910C94E00F0E942E09182F8A
:10074000EFCF0E94570969817A81EDCFFC01262FF6
:10075000408151816281738184810C94730381E0B3
:100760000895CF93DF93EC0160E00E94A603BE01E1
:10077000DF91CF910C9471030E94D5100E94380430
:100780000C94FA100C94FC1008950E94A9070E9482
:10079000C4032FEF84E39CE0215080409040E1F7B8
:1007A00000C000000C94DA160F931F93CF93DF93D1
:1007B0008C0161E00E94A603EC01B8010E946E0367
:1007C0008823A9F1B801CE010E94D213882379F1C0
:1007D000B801CE010E942414882349F1B801CE014A
:1007E0000E944715882319F1F8018281882361F05E
:1007F000CB35FDE5DF0721F170F4C115ECE5DE072F
:10080000A1F0CF3DDC45C9F0C801DF91CF911F9128
:100810000F910C946C03CC358DE5D807A1F0CD3544
:10082000DD4591F70E94BC0CEFCF0E94C50380E02C
:10083000DF91CF911F910F9108950E94200EF7CF65
:100840000E94C50CE1CF0E94C80CDECF08950C9425
:10085000260481E00895CF93C82F0E94290488239D
:1008600019F0C1FD03C0449ACF9108954498FCCF7C
:100870003C9A449A0895CF93C82F0E9427048C2F46
:10088000CF910C942B04CF93DF93CDB7DEB72B978A
:100890000FB6F894DEBF0FBECDBF4F835887698770
:1008A0007A878B8761110E94EB0C1E821D8285E086
:1008B000FE013796DE01119601900D928A95E1F7BF
:1008C0008C819D81892B89F449815A816B817C813E
:1008D0008D819E810E94EB0B2B960FB6F894DEBFA4
:1008E0000FBECDBFDF91CF91089589819A81892371
:1008F0008F3F51F3CE0101960E94AF038111E4CFE7
:10090000EBCFFC01808191810C949909CF93C82F82
:10091000882309F469C08238C1F40E94761581FDEC
:1009200063C089E30E94850C0E940E0D2FEF81EEBB
:1009300094E0215080409040E1F700C0000089E33E
:100940000E948C0CCF910C940E0D8338A1F40E9460
:10095000761580FD49C083E50E94850C0E940E0D2E
:100960002FEF81EE94E0215080409040E1F700C0ED
:10097000000083E5E5CF8438A1F40E94761582FD5E
:1009800033C087E40E94850C0E940E0D2FEF81EE8C
:1009900094E0215080409040E1F700C0000087E4DF
:1009A000CFCF8CEF8C0F813A90F46C2F80910001A7
:1009B000909101010E94CB15882329F08C2F0E9471
:1009C0008C0C0E940E0D8C2F0E94850CBBCF80E2F8
:1009D0008C0F883048F4C77081E001C0880FCA9539
:1009E000EAF70E94CE0CAECFCF910895882309F488
:1009F0004BC0823871F40E94761581FF45C089E3AF
:100A00000E94850C0E940E0D89E30E948C0C0C94B0
:100A10000E0D833859F40E94761580FF35C083E5AA
:100A20000E94850C0E940E0D83E5EFCF843859F4A7
:100A30000E94761582FF28C087E40E94850C0E94E0
:100A40000E0D87E4E2CF9CEF980F913AF0F290E21E
:100A5000980F983050F4877091E001C0990F8A95F3
:100A6000EAF7892F0E94D40CD2CF9BE5980F9330E0
:100A700020F490E080E00C948D15885A873120F4A2
:100A800090E080E00C94A31508951F93CF93DF931B
:100A9000182FEB010E948604209731F4812FDF91FB
:100AA000CF911F910C94F6048FE99FE00197F1F725
:100AB00000C000002197F0CF68EC70E0893311F49A
:100AC00060E570E00C944505882321F00E94CE0C6F
:100AD0000C940E0D0895882321F00E94D40C0C94E0
:100AE0000E0D0895BF92CF92DF92EF92FF920F9377
:100AF0001F93CF93DF936C01D62FC72FFC01028188
:100B0000158112951F700E94A30CE82E8823A1F076
:100B1000E02E002389F08C2F807F803429F080E242
:100B20008D0FE12C883040F082E00E945F0D0E9422
:100B3000A30C91E0E82EE926BC2EB2949FE0B922E6
:100B4000FBE0FB1598F1EB2DF0E0E35CF54E0C9427
:100B5000D2191C2F1F70C07F11F01295107F002337
:100B6000A9F0112359F080E28D0F883010F0D111D7
:100B700009C0812F0E94CE0C0E940E0D8D2F0E9465
:100B8000860414C0812F0E94DE0CF6CF8D2F0E94A8
:100B9000F604112359F080E28D0F883010F0D11146
:100BA0002CC0812F0E94D40C0E940E0D2B2D28509A
:100BB000330B2430310520F40E9476150E943B044B
:100BC000EE2009F465C10E949F0C80FD61C1F60111
:100BD00012820E94990C0E946408C6010E94690753
:100BE0000E94990CDF91CF911F910F91FF90EF9090
:100BF000DF90CF90BF900C948508812F0E94E40C69
:100C0000D3CF2C2F2F70F22EC07FC03219F0F29468
:100C100080EFF822DD2369F0D13049F1002391F112
:100C2000112351F1F601858180FFA8CF8F70858354
:100C300023C0002381F0111106C00E94F10C8F29FE
:100C40000E946405B3CF1130C1F70E94F10C8F29C7
:100C50000E94F70CABCF111106C00E94040D8F2D1E
:100C60000E946B05A3CF113009F4A0CFF6CF00236B
:100C700029F0163008F09ACF8F2DE2CF153008F00A
:100C800095CFEDCF112359F3D93309F0F9C0FFEF18
:100C900027EE33E0F15020403040E1F700C0000083
:100CA0008D2F0E94F60482CF8C2F837009F041C0F3
:100CB00001117CCF4D2F429546954770440F440F4C
:100CC0000D2F0F7010E030E020E0042E04C0000F64
:100CD000111F221F331F0A94D2F760E070E0CB018E
:100CE000D4FF0FC06FE070E080E090E004C0660FBA
:100CF000771F881F991F4A95D2F760957095809548
:100D00009095C695C695C370602B712B822B932B43
:100D1000C23049F058F4C13019F00E94160846CF8D
:100D20000E94040843CF0E94280840CF0E94020876
:100D30003DCF8695002311F08C2F8170882309F414
:100D400035CF4D2F429546954770440F440F0D2FD8
:100D50000F7010E030E020E0042E04C0000F111FDF
:100D6000221F331F0A94D2F760E070E0CB01D4FF5A
:100D70000FC06FE070E080E090E004C0660F771F66
:100D8000881F991F4A95D2F7609570958095909528
:100D9000C695C695C370602B712B822B932BC230E6
:100DA00049F058F4C13019F00E94DB08FFCE0E94D0
:100DB000C908FCCE0E94ED08F9CE0E943E08F6CE8E
:100DC000CF70002329F08C2F0E9464088D2F38CF1C
:100DD0008D2F0E946B058C2F0E948508E7CED23F95
:100DE00089F160F4D03FC9F0D13F29F1002309F423
:100DF00042C01111C3CE8C2F8F7121C0D33F39F166
:100E0000D43FA1F7002369F1CF718C2F0E946408B1
:100E100063E08C2F0E94440DC9CE002341F01530B1
:100E200008F0C4CE8C2F8F710E94A808BFCE163058
:100E300008F0BCCEF7CF8C2F8F71002369F20E948F
:100E40006408B4CE8C2F8F710023C9F3C5CF002363
:100E500029F08C2F8F710E944F08A8CE0E944A085B
:100E6000A5CE81E00E945F0D123008F49FCE82E093
:100E70000E945F0D9BCE111107CF8C2F8F71ACCFCD
:100E80008FEF93ECE9E081509040E040E1F706CF2E
:100E9000DF91CF911F910F91FF90EF90DF90CF9056
:100EA000BF9008950F931F93CF93DF93EC01688158
:100EB00079818A810E94A3098C010E94FF080E9407
:100EC0000108B801CE01DF91CF911F910F910C94D1
:100ED0007205CF93DF93EC018B819C81892B29F0E4
:100EE0008881998189238F3F59F4DF91CF910895AB
:100EF000CE010E945207CE01DF91CF910C94B10335
:100F0000CE010E94D4038111F3CF0E94A30C882349
:100F100061F38A81882349F382E0DF91CF910C94B9
:100F20005F0D882321F00E94DE0C0C940E0D0895B5
:100F3000882321F00E94E40C0C940E0D08950E9469
:100F4000EB0C0E94EE0C0C940E0D0E94930C0C9472
:100F50009F070E94DB0C0C94A507E92FE295EF7028
:100F6000E250EE3070F4F0E0E75BF54E0C94D219ED
:100F7000803F19F020F4883E20F481E00895843FFA
:100F8000E1F380E00895883EC0F3813FD1F7F5CFCB
:100F900093FB882780F90895FC01808191810E944C
:100FA00099090C94AD07CF93DF9300D000D00F9236
:100FB000CDB7DEB70F900F900F900F900F90DF918D
:100FC000CF910895CF93DF9300D000D000D0CDB75C
:100FD000DEB726960FB6F894DEBF0FBECDBFDF9109
:100FE000CF91089508950C94F2070E94F30760933F
:100FF00056017093570180935801909359010C94B6
:101000009F0708950C94F5070F931F9300915601C5
:10101000109157012091580130915901602B712B8B
:10102000822B932B1F910F910C94F5070F931F9315
:1010300000915601109157012091580130915901AA
:1010400060237123822393231F910F910C94F50742
:101050000F931F9300915601109157012091580151
:101060003091590160277127822793271F910F9193
:101070000C94F5070C94F2070C943A080E943C0873
:1010800060935201709353018093540190935501E2
:101090000C949F0760E070E0CB010C943E080F9326
:1010A0001F9341E050E060E070E08A019B0104C0C2
:1010B000000F111F221F331F8A95D2F7C901B801F3
:1010C0001F910F910C943E080F931F9341E050E045
:1010D00060E070E004C0440F551F661F771F8A95BB
:1010E000D2F78091520190915301A0915401B09197
:1010F00055018A019B01082B192B2A2B3B2BC90177
:10110000B8011F910F910C943E080F931F9341E07B
:1011100050E060E070E004C0440F551F661F771F69
:101120008A95D2F7CB01BA0160957095809590951C
:1011300000915201109153012091540130915501B9
:1011400060237123822393231F910F910C943E08F7
:101150000F931F9341E050E060E070E004C0440F43
:10116000551F661F771F8A95D2F780915201909183
:101170005301A0915401B09155018A019B010827A8
:1011800019272A273B27C901B8011F910F910C94F9
:101190003E080F931F93009152011091530120912B
:1011A000540130915501602B712B822B932B1F9191
:1011B0000F910C943E080F931F93009152011091D0
:1011C00053012091540130915501602371238223F2
:1011D00093231F910F910C943E080F931F9300913E
:1011E0005201109153012091540130915501602713
:1011F0007127822793271F910F910C943E08089521
:10120000E92FEE0FEE0F9E0F890F982F977041E098
:1012100001C0440F9A95EAF786958695869595E0E4
:10122000899FF0011124E25CFE4F30E020E070E085
:101230005191DF011197CB01022E02C0969587953F
:101240000A94E2F7817081958527842385278C9302
:101250002F5F3F4F2530310559F70895E92FEE0FE5
:10126000EE0F9E0F890F982F97708695869586951D
:1012700025E0829FF0011124E25CFE4F50E040E047
:1012800080E0219130E0092E02C0369527950A941E
:10129000E2F721703327042E01C0220F0A94EAF7E7
:1012A000822B4F5F5F4F4530510559F70895BF922C
:1012B000CF92DF92EF92FF920F931F93CF93DF9322
:1012C0008C01C0905201D0905301E0905401F090F5
:1012D00055018091560190915701A0915801B0910C
:1012E0005901C82AD92AEA2AFB2ACFE1D0E0BC2E2C
:1012F000D701C6010C2E04C0B695A7959795879582
:101300000A94D2F780FD0EC0219788F7B12C8B2D5F
:10131000DF91CF911F910F91FF90EF90DF90CF90D1
:10132000BF900895B8018C2F0E94F40F019761F3CC
:10133000EECFCF93DF93EC010E945709BE01DF91FE
:10134000CF910C94F40F1F93CF93DF93EB01909107
:101350003D01992331F0CB01DF91CF911F910C9486
:101360009909882379F0CB010E945709182F682F1B
:10137000CE010E940009BE01812FDF91CF911F9104
:101380000C94F40FCB010E942E09182FF4CF1F9359
:10139000CF93DF93C0915A0116E080915B018C13CB
:1013A00004C0DF91CF911F910895D0E01C9FF00100
:1013B0001D9FF00D1124E45AFE4F4081518162813E
:1013C0007381848195810E94E2072196C770E5CFE1
:1013D00040918C0150918D0160918E0170918F012F
:1013E00080919001909191010C94E2071F93CF930B
:1013F000DF9380919101807FA9F480918E018823F1
:1014000089F080915A01C0915B0160918C017091CB
:101410008D01A0918F01B0919001D62FD72316E0B6
:10142000C81304C0DF91CF911F91089590E01097E9
:1014300011F0DF3F19F401968770F2CF189F9001E9
:10144000199F300D1124F901E45AFE4F41814713D1
:10145000F2CF40814613EFCF42814111ECCF43815F
:1014600054814A1B5B0B483C510528F78091910140
:101470008F70806180939101F901EF59FE4F808157
:101480008F70806180838CE891E00E946907DF9112
:10149000CF911F910C94C709AF92BF92CF92DF9268
:1014A000EF92FF920F931F93CF93DF93CDB7DEB7E9
:1014B00061970FB6F894DEBF0FBECDBF8C0185E0FB
:1014C000F801DE011D9601900D928A95E1F7F80171
:1014D000E2808CE8C82E81E0D82E60918F01709157
:1014E00090016115710509F45AC190918C01209108
:1014F0008D01892F82238F3F09F451C14081518191
:10150000A380B480F0908E01F501E61BF70BFF205D
:1015100009F4F6C080919101382F307FE83CF10545
:1015200008F0AFC0311179C0FE2C251323C09413ED
:1015300021C0E1101FC08F708061809391010E94D3
:10154000E809C6010E94690780919101F80185832D
:101550008F2D61960FB6F894DEBF0FBECDBFDF9121
:10156000CF911F910F91FF90EF90DF90CF90BF90A0
:10157000AF900895AB2829F0842F85238F3F09F081
:1015800027C180E0F82FF170DF2E80FF3CC08091F2
:101590005A0120915B0136E0821315C04D875E87AA
:1015A0008D859E850E949909292F22952F702230C2
:1015B000F0F0243018F59F70F1F0F8019581907FDC
:1015C000D1F4D12C1EC090E0389FF001399FF00D6E
:1015D0001124E45AFE4F6181651306C060816413D3
:1015E00003C06281E6120FC001968770D5CF9F704D
:1015F00011F0882331F3805E883018F3C8010E940F
:101600006907FD2CA5CFEE2009F4A2CF80919101AE
:10161000816080939101F12C9BCF251306C0941318
:1016200004C0F801EE2009F487C0C8010E94CC076D
:10163000882319F1EE2009F180919101803270F038
:1016400020918C0130918D0138872F831986BB86BC
:10165000AA868C87CE0107960E94690786E0F8016A
:10166000ACE8B1E001900D928A95E1F70E94F6098D
:101670000E94E809FF24F3946BCFC8010E94690718
:10168000F9CF311113C07A2DB98AA88A6E2D8989B4
:101690000E94D3078CE891E00E94690786E0F6017A
:1016A00011928A95E9F70E94E809B5CF25130FC07A
:1016B00094130DC0E1100BC0F8018583C8010E948E
:1016C000690786E0F60111928A95E9F741CFC801D2
:1016D0000E94CC07882389F2EE2079F28091910153
:1016E000803208F4BBCF20918C0130918D013A8378
:1016F00029831B82BD82AC828E83CE010196ACCF42
:10170000E83CF10508F03EC0FE2CEE2009F4B5CF10
:1017100025132AC0941328C08091910180FD1BC01D
:10172000982F907FC1F0F8018583903F31F0982F7A
:10173000907F905F8F70892B8583C8010E94690715
:1017400086E0F801ACE8B1E001900D928A95E1F7EE
:101750000E94E809FDCE86E0F801ACE8B1E0019016
:101760000D928A95E1F7F4CEC8010E94CC07811151
:1017700075CF80919101816080939101C8010E9491
:101780006907E6CE7A2DB98AA88A6E2D89890E94CA
:10179000D30786E0F60111928A95E9F7D9CFEE20BA
:1017A00009F46BCFC8010E94CC07F82E882309F4F6
:1017B00064CF86E0F801ACE8B1E001900D928A9523
:1017C000E1F78CE891E00E9481040E94F609C0CF05
:1017D00081E08E25D7CE1F93CF93DF93CDB7DEB7B1
:1017E0002C970FB6F894DEBF0FBECDBF4F8358873E
:1017F00069877A878B879C87CE0107960E944C0A5F
:10180000882369F08A859B85892B39F04F8158851B
:10181000842F85238F3F09F071C016E05FC086E0FA
:10182000FE013796DE01119601900D928A95E1F73F
:101830008A859B85892B89F38F81988589238F3FA2
:1018400061F320915B0130E0C9010196877099270F
:1018500040915A014817190671F40E94A907109285
:101860005B0110925A0186E0ECE8F1E0DF011D9285
:101870008A95E9F7D2CF96E0929FD001939FB00D61
:101880001124A45ABE4FFE01319601900D929A95F3
:10189000E1F780935B010E94C709BFCF819FC00120
:1018A0001124845A9E4F0E944C0A8823E9F0E0914B
:1018B0005A011E9FF0011124E45AFE4F40815181CC
:1018C00062817381848195810E94E20780915A012F
:1018D00090E001968770992780935A0180915A0170
:1018E00090915B018913DACF2C960FB6F894DEBF86
:1018F0000FBECDBFDF91CF911F91089569857A8585
:101900008B859C850E94E20788CF682F809100011B
:10191000909101010C940116682F80910001909123
:1019200001010C94031680910001909101010C9427
:1019300005168091920185958595859508958091EC
:1019400092018770089590919201977081E009F457
:1019500080E0089590915D0292FB222720F92817DC
:1019600051F080FB92F990935D0280915C0290911E
:101970005D020C949C0D089580915D0282FB882786
:1019800080F991E089270C94AA0C81E00C94AA0CB0
:1019900080E00C94AA0C80919E01089590919E0184
:1019A000892B80939E010895809590919E019823A4
:1019B00090939E01089510929E01089590919D012B
:1019C000892B80939D010895809590919D01982386
:1019D00090939D01089510929D01089510929C018D
:1019E000089580919301089508950C94F40C9091BA
:1019F0005D0292FD08C090919301981721F08093A9
:101A000093010C94F50C089580919301882329F09B
:101A10001092930180E00C94F50C0895E091000180
:101A2000F091010180919E018083E0910001F0918D
:101A30000101808190919D01892B8083E0910001BB
:101A4000F0910101808190919C01892B808390917C
:101A50009301992381F0E0910001F09101018081CF
:101A6000892B808380910001909101010E94B9151A
:101A700081110E94040D80910001909101010C944C
:101A8000821508950C94410D90915D0292FD10C055
:101A900098E0899F90011124622B609392010E942B
:101AA0006408809192018595859585950C94420DE9
:101AB0000C9464081092920180E00C94420D909175
:101AC00092018095892380939201282F277039F401
:101AD000282F082E000C330B9217130621F4909137
:101AE0005D0292FF07C08595859585950E948508C2
:101AF0000C945A0D089590E080E00E94011A21E0B4
:101B0000893E9E4F09F020E0822F089582E090E008
:101B10000C94F91983E090E00C94F919CF9384E0C8
:101B200090E00E94F919C82F82E290E00E94F91912
:101B3000982F8C2FCF910895CF93C92F682F84E0D1
:101B400090E00E94071A6C2F82E290E0CF910C94F3
:101B5000071AAB01BC018FE090E00C94191AAB019D
:101B6000BC0183E190E00C94191A60E070E0CB01B5
:101B70000C94AF0D60E070E0CB010E94A90D0C94B5
:101B8000B50D69EE7EEF90E080E00E94251A60E0DE
:101B900082E090E00E94071A60E083E090E00E94FB
:101BA000071A109256011092570110925801109284
:101BB000590160E084E090E00E94071A60E082E250
:101BC00090E00E94071A60E085E090E00E94071A0A
:101BD00060E086E090E00E94071A6FEF87E090E0F7
:101BE0000E94071A40E050E0BA0188E090E00E94AD
:101BF000191A60E08DE090E00E94071A40E050E082
:101C0000BA0188E190E00E94191A60E087E190E053
:101C10000E94071A40E050E0BA018CE190E00E9477
:101C2000191A70E060E080E290E00E94251A40E01E
:101C300050E0BA0188E190E00E94191A0C94BA0DA4
:101C40000C94C10D682F8EE090E00C94071A0E944E
:101C50009B166093AE017093AF018093B001909397
:101C6000B1016093AA017093AB018093AC01909392
:101C7000AD0108950E949B166093AE017093AF0171
:101C80008093B0019093B1016093A6017093A70176
:101C90008093A8019093A9010895089508950C9444
:101CA0004D0E08950C94510E82ED90E10E94EF16B6
:101CB0000E944E0E0C944F0E81E008950C945C0E21
:101CC000089508950E94600E0C94610E0E9486167D
:101CD0000E94AA110E9447120C94520EAF92BF921A
:101CE000CF92DF92EF92FF920F931F93CF93DF93E8
:101CF000CDB7DEB72A970FB6F894DEBF0FBECDBFC3
:101D00000E94BB1181110E94270E80EAA82E81E05B
:101D1000B82E10E000E0C02E802F0E94FE10E82EAA
:101D2000F501F1905F01F81609F451C08091B201FC
:101D300081FD0E9404118F2D8E25D12CFF24F39458
:101D4000982F9F2109F43EC00E945E0E882399F0CF
:101D5000DE82CF82EF2081E009F480E088870E9454
:101D60008F168160782F9A8789874E815F81688579
:101D70008A850E944304F801E056FE4F8081F826D0
:101D8000F0820E94AF1281110E943A0E0E947615D5
:101D900090919F01891791F10E94761580939F0180
:101DA0002A960FB6F894DEBF0FBECDBFDF91CF915C
:101DB0001F910F91FF90EF90DF90CF90BF90AF9069
:101DC0000C943B04D394FF0CF5E0DF12B9CF0F5F06
:101DD0001F4F0630110509F09ECF8FEF89838A834C
:101DE0001B820E948F168160782F9D838C8349818E
:101DF0005A816B818D810E944304C3CF2A960FB60E
:101E0000F894DEBF0FBECDBFDF91CF911F910F9130
:101E1000FF90EF90DF90CF90BF90AF900895CF9359
:101E2000DF930E94F80FEC01811523E5920790F5EE
:101E3000811532E5930708F096C081159042C8F4E9
:101E4000C11581E0D80788F4C53AD10548F4C430FB
:101E5000D10558F4C130D10541F0D0E0C0E005C053
:101E6000CE01805E91090897C0F7CE01DF91CF9136
:101E70000895C11591E5D90708F070C0C11520E596
:101E8000D20708F04EC0C11530E4D30730F3DF703D
:101E9000D06AEBCF811546E59407F0F4C11585E5CE
:101EA000D80708F075C0C11594E5D90708F06BC0D4
:101EB000CE018370992721E030E002C0220F331F4A
:101EC0008A95E2F7C695C69590E2C99FE001112474
:101ED000C22BD32BDA68C9CF81152AE5920778F493
:101EE000811539E5930708F05EC0811548E5940730
:101EF00008F4B3CFD82FCC27C06FD06AB6CF905696
:101F00008115904208F0A9CF8D2F8F710E948F10FC
:101F100090E0982F882788279F719C012C2BE9013E
:101F200040C0CE01E4E096958795EA95E1F783708D
:101F30002C2F26952695237040E2249F9001112492
:101F4000382B8C2F8370C1E0D0E002C0CC0FDD1F96
:101F50008A95E2F7C22BD32BDC6887CFDC2FCC2706
:101F6000C16FD06A82CF8370992721E030E002C030
:101F7000220F331F8A95E2F7C695C69580E2C89F67
:101F8000E0011124E7CFDC2FCC27C46FD06A6DCFDE
:101F90008C2F0E948F10C82FD0E0DC2FCC27CC27AD
:101FA000DF71D06262CF8F700E948F1034E0D695BF
:101FB000C7953A95E1F7CF709C2FEC01D06955CFCA
:101FC000972F70E025E0929F600D711D1124FB0199
:101FD0009EE1899FE00DF11D1124EE0FFF1FE859CE
:101FE000FF4F8591949108950E94E00F0C940F0F7C
:101FF00082389105B1F1B0F48133910509F475C0CF
:1020000048F48932910509F469C08A32910509F4CE
:1020100073C008958533910509F459C0893391053A
:1020200001F10895833E9105A9F138F4803E9105B0
:10203000F9F0823E910549F10895863E9105A9F196
:10204000873E9105C9F1843E910519F520915D0205
:1020500021FF1FC080915C0284FD14C087EE90E0D8
:10206000089520915C022370A1F080EE90E0089525
:1020700020915C0220FD47C030915D0230FF09C015
:1020800024FF44C090E080E004C020915C0222FD67
:10209000F7CF089520915C0222FD3BC030915D0294
:1020A00030FDE3CF24FFF5CFEDCF20915C0223FF7D
:1020B000F0CF24FDE7CFD2CF20915C0223FD2CC0CE
:1020C00030915D0231FFEECF84EE90E008952091D3
:1020D0005C0225FFDECF89E290E0089520915C024A
:1020E00025FFD7CF85E390E0089520915C0226FF7D
:1020F000D0CF8AE290E0089520915C0226FFC9CFFC
:1021000081E390E0089589E390E0089583EE90E004
:10211000089582EE90E0089586EE90E00895909103
:102120005C0292FF06C0282F28712830F9F4877FBF
:10213000846093FF06C0282F28712831F1F4877E30
:10214000846120915D0220FF06C0382F387138303D
:10215000D9F4877F816021FF06C0282F287128319C
:10216000D1F4877E816194FD877E0895282F2471A4
:102170002430F9F68B7F8860DCCF282F247124313E
:1021800001F78B7E8861DDCF382F3171313019F73F
:102190008E7F8860E0CF282F2171213121F78E7E3C
:1021A0008861E1CF80E0089508950E947B0D811140
:1021B00002C00E94200E0E94860D8093B2010E94F0
:1021C0008E0D90935D0280935C020E94D4100E9459
:1021D0008A0D682F70E090E080E00E940208609114
:1021E00052017091530180915401909155010C94CA
:1021F0003C0808950C94F9100C94DE02E82FF0E0EE
:10220000EC59FD4F80810895089580EA8A95F1F791
:10221000089500C008950C940511F894E82FE295F4
:10222000EF70F0E031A1282F2F7081E090E001C025
:10223000880F2A95EAF7982F9095932391A392A15E
:10224000892B82A378940895CF93DF93C3E1D1E0E3
:1022500089918F3F11F00E940D1181E0C931D8079B
:10226000B9F7CEE0D1E089918F3F11F00E940D11B6
:1022700081E0C331D807B9F7DF91CF910895CF92AC
:10228000DF92EF92FF920F931F93CF93DF93EC01B6
:10229000D62E062F10E0C8018D5E9E4F7C01FC01FA
:1022A00080818F3F09F44BC0F894E82FE295EF70DE
:1022B000F0E091A18F7021E030E001C0220F8A95FB
:1022C000EAF7892F822B81A382A12095282322A3BC
:1022D00078940E940911EEE0F1E030E020E0C12C9A
:1022E00051E041914F3FA1F1A42FA295AF70B0E012
:1022F00090968C9190E04F7002C0959587954A9585
:10230000E2F780FD25C0852F022E01C0880F0A94B8
:10231000EAF7C82A2F5F3F4F2530310511F7F70143
:1023200080818F3F11F00E940D1161E0C11001C04A
:1023300060E08D2D0E940B11C00FD11FC882DF916C
:10234000CF911F910F91FF90EF90DF90CF90089564
:1023500080E0DFCF0E942411EEE5F2E0A4E6B2E0D7
:1023600011921D9282E0E436F807D1F786E00E94D0
:1023700003120C94BC03FF920F931F93CF93DF9330
:1023800000D000D000D0CDB7DEB78E010F5F1F4F59
:1023900086E0F80111928A95E9F7F12C6F2DC801BA
:1023A0000E943F11F394F6E0FF12F8CF46E050E0B0
:1023B000B8018EE592E00E94EC19FF24F394009797
:1023C00009F4F12C892B41F086E0F801AEE5B2E08A
:1023D00001900D928A95E1F72F2D46E064E672E0B8
:1023E0008EE592E00E9404120E94C2038F2D269671
:1023F0000FB6F894DEBF0FBECDBFDF91CF911F9116
:102400000F91FF9008950895FF920F931F93CF931C
:10241000DF93F82E092F162FD72FC42F222349F030
:1024200081E08093B5010E948F169093B401809350
:10243000B3018091B5018823A1F08091B3019091FF
:10244000B4010E94A716059760F0EF2DF02FA12F81
:10245000BD2FCE0FDF2FD11DEC17FD0741F41092D9
:10246000B501DF91CF911F910F91FF900895819158
:102470008D93F2CF0E940C160E94F4160E9405174D
:102480000E9425170E94620EFBCF0C945E02AF9251
:10249000BF92CF92DF92EF92FF920F931F93CF9351
:1024A000DF93AFE2B1E02CE231E08CEBA82E81E0CB
:1024B000B82E62E371E041E050E00D91802F8295EB
:1024C0008F7090E0FC01C1A10F707A01002E01C055
:1024D000EE0C0A94EAF7FE2DF095CF23FC01C1A380
:1024E000C2A1CE29C2A3E90119919E01E12FE29573
:1024F000EF70F0E0F1A01F706A01012E01C0CC0C5A
:102500000A94EAF7EC2CE094EF20E1A2F2A0FC2878
:10251000F2A2EC0188A190E002C0959587950A95FA
:10252000E2F78170E0A1F0E002C0F595E7951A9519
:10253000E2F790E0E0FD92E0892BF50181935F01E5
:102540006A177B0709F0B9CFDF91CF911F910F91E7
:10255000FF90EF90DF90CF90BF90AF9008952F92B3
:102560003F924F925F926F927F928F929F92AF9223
:10257000BF92CF92DF92EF92FF920F931F93CF9370
:10258000DF938CEBE82E81E0F82E9FE2A92E91E0FC
:10259000B92E2CE2C22E21E0D22EC9EBD1E036EBCF
:1025A000832E31E0932E49E2642E41E0742E312CCB
:1025B000212CD701ED917D016E2F660F660F6E9372
:1025C000F50121915F01822F82958F7090E0FC01CF
:1025D00080A190E02F7002C0959587952A95E2F72B
:1025E00081709927F60121916F01422F42954F701A
:1025F00050E0FA0140A150E02F7002C05595479578
:102600002A95E2F79A012170332740FF02C022E0A9
:1026100030E0822BE62FE82BEC93D3010D913D01A6
:102620002E01EF70F0E0E75EFE4F80819881890F08
:10263000888310E0082E000C990B20E0801791078A
:102640004CF0F40180818F5F808360E0832D0E94D5
:10265000451221E08881082E000C990B442755274C
:10266000401B510B481759074CF0D4018C918150F5
:102670008C9361E0832D0E94451221E02196FE019A
:102680003197D2018C91082E000C990BB8010E9451
:10269000BE198083222A3394BFEF8B1A9B0AE3E092
:1026A0003E1287CF822DDF91CF911F910F91FF9026
:1026B000EF90DF90CF90BF90AF909F908F907F90E2
:1026C0006F905F904F903F902F9008950F931F93BE
:1026D000CF93DF93C42FD22FFC0182818823C9F0CE
:1026E0004093C1010E948F169093C0018093BF0157
:1026F00080E28C0F883008F050C0C77081E001C0C4
:10270000880FCA95EAF7DF91CF911F910F910C9432
:1027100064051091C101141335C08091BF019091DF
:10272000C0010E94A716883C910560F5C0E2CD0F5C
:102730001D17B9F080E2810F883040F4177081E0F6
:1027400001C0880F1A95EAF70E946B05C83048F45B
:1027500081E09D2F977001C0880F9A95EAF70E943B
:102760006405802F0E945C05C830B8F4D77081E002
:1027700001C0880FDA95EAF7DF91CF911F910F9191
:102780000C946B0580E28C0F883038F4C77081E0C0
:1027900001C0880FCA95EAF7EFCFDF91CF911F9163
:1027A0000F9108950F939C01CB01243F4CE5340712
:1027B00059F1A8F4293DFCE53F0701F12A3D4CE51C
:1027C0003407D1F1283D3C4591F406E221EE41EE7B
:1027D00068ED7CE50E94661380E00F910895263F26
:1027E000FCE53F07E9F0B0F0273F3C45F9F0FC017C
:1027F0008281882339F11092C101EFCF07E225EEE3
:1028000045EE69ED7CE5E6CF06E221EE40EE64EFB1
:102810007CE5E0CF07E225EE44EE65EF7CE5DACF1C
:1028200006E221EE42EE66EF7CE5D4CF07E225EE2C
:1028300046EE67EF7CE5CECF08E221E045EE6AED9B
:102840007CE5C8CF81E0C9CFCF93DF93EC01FB01DA
:102850008281882309F419C1C230FCE5DF07C0F189
:10286000C6319CE5D90730F09E012B5F3C452930ED
:10287000310570F50E948E0D90935D0280935C028D
:10288000C031ECE5DE0709F4CFC008F05BC0C8300A
:102890008CE5D80709F4B6C088F5C430ECE5DE074E
:1028A00009F4A8C0C0F4C2308CE5D80709F49CC074
:1028B00080915C028260C330DC4509F498C080914D
:1028C0005C0290915D020E949C0D0E94A90780E02D
:1028D000DF91CF91089580915C028061C630ECE574
:1028E000DE0709F484C080915C028860C730DC4553
:1028F00008F47DC080915C02806279C0CC308CE5A8
:10290000D80709F489C070F480915C028C60CA30E9
:10291000ECE5DE0709F46BC008F478C080915C0236
:102920008E7F65C0CE308CE5D80709F479C08091E0
:102930005C028B7FCF30DC4508F459C080915C028B
:102940008F7E55C0CC3FECE5DE0709F457C030F56B
:10295000C3318CE5D80709F46FC078F4C131ECE5D8
:10296000DE0709F465C0C231DC4509F0A8CF0E943A
:10297000A90780915C028F773AC0C5318CE5D807F2
:1029800009F462C008F476C080915D028160CB3F9B
:10299000DC4509F094CF80935D0291CFC115FDE530
:1029A000DF0709F44DC088F480915D028D7FCE3F32
:1029B0009CE5D90781F380915D028E7FCF3FDC4596
:1029C00050F380915D028360E6CFC230FDE5DF0702
:1029D00009F459C008F444C080E0C330DD4509F073
:1029E0006ECF0E94220E6BCF80915C02816080933B
:1029F0005C0265CF80915C028460F9CF80915D02BA
:102A00008260C9CF80915C028064F1CF0E94A907E7
:102A100080915C028068EBCF80915C028D7FE7CF74
:102A200080915C02877FE3CF80915C028F7DDFCF56
:102A300080915C028F7BDBCF80915C02837FD7CF5C
:102A400080915D028C7FA7CF80915C0282FB9927E9
:102A500090F921E0922790FB82F990FB83F9C7CF90
:102A600080915D02982F909591708E7F892B90FBBD
:102A700081F991CF0E94A90790915C02892F97FB61
:102A800087F98058B4CF81E0ACCF81E021CFCF93DC
:102A9000DF93EB0186319C4511F50E94CB0C9A81A6
:102AA000992399F08A7A91E009F490E09093C20119
:102AB000811109C089E20E94850C0E940E0D80E000
:102AC000DF91CF91089585E3F6CF8091C201811106
:102AD00004C089E20E948C0CF0CF85E3FBCF81E03B
:102AE000EFCF9093C8018093C7010895E091C7018B
:102AF000F091C801309721F00190F081E02D099408
:102B000080E00895E091C701F091C801309721F06D
:102B10000280F381E02D099408952091C501309140
:102B2000C6012817390771F09093C6018093C5013B
:102B3000E091C701F091C801309721F00680F7813C
:102B4000E02D099408952091C3013091C401281704
:102B5000390771F09093C4018093C301E091C701DC
:102B6000F091C801309721F00084F185E02D09949F
:102B700008959C012E5F3F4FAC01485F5F4F80E09E
:102B80002417350709F40895F90191919F019923BC
:102B9000B9F38F5FF5CF662349F0FC0132960896B2
:102BA0002191261729F0E817F907D1F780E0089559
:102BB00081E008959C01FC0132969FEF80E04191F5
:102BC000461751F09F3F19F4411101C0982F8F5FB4
:102BD0008630A9F79F3F09F40895290F311D97FD0D
:102BE0003A95F90162830895FC0132960896219185
:102BF000261303C0DF0111971C92E817F907B9F7F4
:102C000008950C94DA150C94F415029626E0FC0154
:102C100011922A95E9F708950895089508950C945E
:102C20000E168091CC01882349F10E940F1680E096
:102C30000E943B041092C90188E190E020E40FB6A5
:102C4000F894A895809360000FBE2093600083B72E
:102C5000817F846083BF83B7816083BF78948895C8
:102C600083B78E7F83BF0FB6F894A89580916000DC
:102C7000886180936000109260000FBE08950895EF
:102C8000CF930E940D160E94BB110E943F16C0E018
:102C90008C2F0E94FE10811105C0CF5FC630C1F796
:102CA000CF91089581E0FCCF08950C9454160E94B2
:102CB000A9070E9476150E943B040C9455161F929A
:102CC0001FB61F9211248F939F93AF93BF93809150
:102CD000C901811113C080916A0290916B02A09189
:102CE0006C02B0916D024196A11DB11D80936A02E4
:102CF00090936B02A0936C02B0936D02BF91AF9161
:102D00009F918F911F901FBE1F90189582E084BDE8
:102D100093E095BD9AEF97BD80936E0008952FB70D
:102D2000F89480916A0290916B02A0916C02B0912C
:102D30006D022FBF08952FB7F89460916A027091C9
:102D40006B0280916C0290916D022FBF08959C01DF
:102D50004FB7F89480916A0290916B02A0916C0237
:102D6000B0916D024FBF821B930B089578941F9210
:102D70001FB61F9211248F939F93AF93BF9380919F
:102D80006A0290916B02A0916C02B0916D02019663
:102D9000A11DB11D80936A0290936B02A0936C02F7
:102DA000B0936D02BF91AF919F918F911F901FBE05
:102DB0001F90189588E198E00FB6F894A895809335
:102DC00060000FBE90936000A895F894D8E0CEEF15
:102DD00028E3299320E0299314BEFFCF0895909310
:102DE00033018093320108950E948F169093CB0196
:102DF0008093CA0180E890E00FB6F8948093610058
:102E0000909361000FBE0C94540E0E94A319539A24
:102E100080E0815091F4539878940E94660E0E944D
:102E2000DD170E947115FFEF20E782E0F15020408E
:102E30008040E1F700C000000895A895EFE9FFE0A9
:102E40003197F1F700C00000E4CF8091950288230C
:102E500009F1109295020E948F169093CB018093F6
:102E6000CA018091CC01882341F01092CC010E94CC
:102E700057168091CC01811111C00E94B318809126
:102E80009B02882329F08091790284FD0E946E0EB6
:102E90000C9484178091CC01882301F10E941116B3
:102EA0000E944016882349F1F8942AB15B9A822F38
:102EB0008C608AB99BB13CE093279BB94FE788E3CC
:102EC00091E0415080409040E1F700C000008BB19C
:102ED00083278BB92AB95B98789408958091CA01A9
:102EE0009091CB010E94A716069708F4C2CF81E00B
:102EF0008093CC010E941116BCCF089580915B0293
:102F00000895089508950895CF93DF93CAE0D0E01F
:102F10008091790284FF1AC08091D8019091D901E3
:102F2000981789F028E0829FC001112468E086523A
:102F30009E4F0E94AF188091D80190E001968F704B
:102F400099278093D801DF91CF9108950E94B318FB
:102F50008FE99FE00197F1F700C000002197C1F6CB
:102F6000F2CFCF93DF93EC01A091D901B0E0CD0176
:102F700001968F7099272091D801281779F093E056
:102F8000AA0FBB1F9A95E1F7A652BE4F98E0FE012B
:102F900001900D929A95E1F78093D9010E94B318A0
:102FA0000E94841788E0FE01A0EDB1E001900D922F
:102FB0008A95E1F7DF91CF91089582E091E008953D
:102FC000FC01808180768032F1F48181813061F46E
:102FD00084819581892BB9F480ED91E090939702DB
:102FE0008093960288E00895823041F48AE592E069
:102FF000909397028093960281E008958A3029F495
:10300000838180935A0280E008958930E1F78281BC
:1030100093818115924069F484819581892B49F4CB
:1030200081E08093CF01868197819093CE01809338
:10303000CD018FEF0895FC018091CD019091CE01DB
:10304000892B61F08091CF01813041F49081909380
:103050005B021092CE011092CD0108958FEF08957A
:103060000895FC019381933039F130F49130A1F04F
:103070009230D1F080E008959132E9F19232D1F7A7
:1030800084819581892BB1F786E091E09093970236
:103090008093960280E4089586EC90E090939702E6
:1030A0008093960282E1089584EA90E090939702DB
:1030B0008093960282E2089582818130A1F0882374
:1030C00051F08230B9F688ED90E0909397028093AA
:1030D00096028CE0089582E091E0909397028093AD
:1030E000960284E0089586EE90E090939702809394
:1030F00096028AE1089582818111BCCF86EB90E02F
:10310000909397028093960289E008951F93CF933E
:10311000DF93E82F792F162FEA01888184FF1CC0E6
:10312000298188E828272983CE010296DC012E2FE9
:10313000372F512F5E0FF90121912D939F01452FBC
:103140004E1B1416C4F3612F0E9401011C5F1883EB
:10315000DF91CF911F9108958AE58883E5CF49E7F4
:1031600052E00C948618CF93DF93609198026350DD
:1031700067FD12C080919402CCE0D0E0C81BD10959
:10318000C456DD4F80919302803108F054C0CE01C7
:103190000E9430181092980280910D0184FF3EC069
:1031A00080910C018F3FD1F1C82F893008F0C8E021
:1031B000982F9C1B90930C0190916E0228E8922707
:1031C00090936E028823E9F0809196029091970285
:1031D0002091920226FFAEC0FC012C2FAFE6B2E098
:1031E00034913D9331962150D9F79C012F5F3F4F89
:1031F0008FEF8C0F820F932F911D909397028093E6
:1032000096026C2F8FE692E00E940101CC5FCC30D9
:1032100019F08FEF80930C01C0930D0184E199B1F7
:103220009C7031F48150D9F710929902109291025A
:10323000DF91CF9108958D3209F069C0683009F0AF
:10324000A9CF83EC80936E028AE580930D011092E2
:1032500092028881807671F0CE010E94E0178F3F44
:10326000C1F4988197FD8E8190E8909392028093AB
:103270000C0190CF2A81109277029981911111C08F
:103280001092780227E732E082E030939702209391
:1032900096029F819111EBCF9E81981740F7892F5D
:1032A000E6CF953029F42093990227E732E0EDCF5D
:1032B000963099F49B81913021F4CE010E9431180F
:1032C00008C09230D1F39330C1F39132B1F392320E
:1032D000A1F390E490939202C2CF983089F0993094
:1032E00019F420939B02E1CF9A3071F09B30E9F6FC
:1032F0009BE490937A029093B30290938602D5CF89
:103300002BE932E081E0C1CF27E732E0FBCF8091AB
:10331000920287FF3FCFCE010E941B188F3F21F4FE
:103320008EE180930D0136CF882309F433CF1092BC
:103330000C0130CFDC012C2FEFE6F2E03D91319310
:103340002150E1F752CFCF93DF93E9E6F0E080819F
:1033500088608083E99AC9E7D2E08BE48983A2EB95
:10336000B2E011968C931197E5E8F2E081838AE54B
:1033700088838C938083DF91CF91089597FB072EEC
:1033800016F4009407D077FD09D00E94D81907FCE5
:1033900005D03EF4909581959F4F08957095619565
:1033A0007F4F0895EE0FFF1F0590F491E02D0994D3
:1033B000AA1BBB1B51E107C0AA1FBB1FA617B7075B
:1033C00010F0A61BB70B881F991F5A95A9F7809577
:1033D0009095BC01CD010895FB01DC0104C08D91E5
:1033E0000190801921F441505040C8F7881B990B77
:1033F0000895F999FECF92BD81BDF89A992780B5BD
:103400000895A8E1B0E042E050E00C942D1A262F78
:10341000F999FECF92BD81BDF89A019700B40216CA
:1034200039F01FBA20BD0FB6F894FA9AF99A0FBE78
:1034300008950396272F0E94081A0E94071A252F25
:103440000E94081A242F0C94081A0196272F0E9414
:10345000081A0C94071ADC01CB01FC01F999FECF84
:1034600006C0F2BDE1BDF89A319600B40D9241500C
:103470005040B8F70895F894FFCFA905A9050106B3
:103480000106D605D605D605D6055406E006EF0694
:10349000EF06B807B807C107C107C307C107C107CF
:0E34A000C107B807B807C807C107C107C807AA
:1034AE0094017E17B117821781178317FF5A636233
:1034BE0061609495969730313200FF010001000053
:1034CE00FFFF0000010001FF00020202903565338C
:0234DE00349127
:00000001FF
